{
  "contractName": "ContentDAO",
  "abi": [
    {
      "constant": true,
      "inputs": [],
      "name": "ADJUDICATION_THRESHOLD",
      "outputs": [
        {
          "name": "",
          "type": "uint256"
        }
      ],
      "payable": false,
      "stateMutability": "view",
      "type": "function"
    },
    {
      "constant": true,
      "inputs": [],
      "name": "VOTE_DURATION",
      "outputs": [
        {
          "name": "",
          "type": "uint256"
        }
      ],
      "payable": false,
      "stateMutability": "view",
      "type": "function"
    },
    {
      "constant": true,
      "inputs": [
        {
          "name": "",
          "type": "uint40"
        }
      ],
      "name": "posts",
      "outputs": [
        {
          "name": "startedAt",
          "type": "uint256"
        },
        {
          "name": "track",
          "type": "uint256"
        },
        {
          "name": "liked",
          "type": "bool"
        },
        {
          "name": "stage",
          "type": "uint8"
        },
        {
          "name": "feePaid",
          "type": "bool"
        }
      ],
      "payable": false,
      "stateMutability": "view",
      "type": "function"
    },
    {
      "constant": true,
      "inputs": [],
      "name": "STAKE_DURATION",
      "outputs": [
        {
          "name": "",
          "type": "uint256"
        }
      ],
      "payable": false,
      "stateMutability": "view",
      "type": "function"
    },
    {
      "constant": true,
      "inputs": [],
      "name": "registry",
      "outputs": [
        {
          "name": "",
          "type": "address"
        }
      ],
      "payable": false,
      "stateMutability": "view",
      "type": "function"
    },
    {
      "constant": true,
      "inputs": [],
      "name": "subunits",
      "outputs": [
        {
          "name": "",
          "type": "uint256"
        }
      ],
      "payable": false,
      "stateMutability": "view",
      "type": "function"
    },
    {
      "constant": true,
      "inputs": [],
      "name": "ADJUDICATION_FEE_PERCENT",
      "outputs": [
        {
          "name": "",
          "type": "uint256"
        }
      ],
      "payable": false,
      "stateMutability": "view",
      "type": "function"
    },
    {
      "constant": true,
      "inputs": [],
      "name": "SIG_STAKE_DELAY",
      "outputs": [
        {
          "name": "",
          "type": "uint256"
        }
      ],
      "payable": false,
      "stateMutability": "view",
      "type": "function"
    },
    {
      "constant": true,
      "inputs": [],
      "name": "MEMBER_MIN_KARMA",
      "outputs": [
        {
          "name": "",
          "type": "uint256"
        }
      ],
      "payable": false,
      "stateMutability": "view",
      "type": "function"
    },
    {
      "constant": true,
      "inputs": [],
      "name": "SIG_STAKE",
      "outputs": [
        {
          "name": "",
          "type": "uint256"
        }
      ],
      "payable": false,
      "stateMutability": "view",
      "type": "function"
    },
    {
      "constant": true,
      "inputs": [],
      "name": "FLIP_PERCENT",
      "outputs": [
        {
          "name": "",
          "type": "uint256"
        }
      ],
      "payable": false,
      "stateMutability": "view",
      "type": "function"
    },
    {
      "constant": true,
      "inputs": [],
      "name": "token",
      "outputs": [
        {
          "name": "",
          "type": "address"
        }
      ],
      "payable": false,
      "stateMutability": "view",
      "type": "function"
    },
    {
      "inputs": [
        {
          "name": "_registry",
          "type": "address"
        },
        {
          "name": "_token",
          "type": "address"
        },
        {
          "name": "_voteDuration",
          "type": "uint256"
        }
      ],
      "payable": false,
      "stateMutability": "nonpayable",
      "type": "constructor"
    },
    {
      "anonymous": false,
      "inputs": [
        {
          "indexed": false,
          "name": "id",
          "type": "uint40"
        }
      ],
      "name": "Opened",
      "type": "event"
    },
    {
      "anonymous": false,
      "inputs": [
        {
          "indexed": false,
          "name": "id",
          "type": "uint40"
        }
      ],
      "name": "Flipped",
      "type": "event"
    },
    {
      "anonymous": false,
      "inputs": [
        {
          "indexed": false,
          "name": "id",
          "type": "uint40"
        }
      ],
      "name": "StartAdjudication",
      "type": "event"
    },
    {
      "anonymous": false,
      "inputs": [
        {
          "indexed": false,
          "name": "num1",
          "type": "uint256"
        },
        {
          "indexed": false,
          "name": "num2",
          "type": "uint256"
        }
      ],
      "name": "Debug",
      "type": "event"
    },
    {
      "constant": false,
      "inputs": [
        {
          "name": "_id",
          "type": "uint40"
        },
        {
          "name": "_vote",
          "type": "bool"
        },
        {
          "name": "_amount",
          "type": "uint256"
        }
      ],
      "name": "stake",
      "outputs": [],
      "payable": false,
      "stateMutability": "nonpayable",
      "type": "function"
    },
    {
      "constant": false,
      "inputs": [
        {
          "name": "_id",
          "type": "uint40"
        },
        {
          "name": "_amount",
          "type": "uint256"
        }
      ],
      "name": "open",
      "outputs": [],
      "payable": false,
      "stateMutability": "nonpayable",
      "type": "function"
    },
    {
      "constant": false,
      "inputs": [
        {
          "name": "_id",
          "type": "uint40"
        },
        {
          "name": "_vote",
          "type": "bool"
        }
      ],
      "name": "vote",
      "outputs": [],
      "payable": false,
      "stateMutability": "nonpayable",
      "type": "function"
    },
    {
      "constant": true,
      "inputs": [
        {
          "name": "_id",
          "type": "uint40"
        },
        {
          "name": "_address",
          "type": "address"
        }
      ],
      "name": "voted",
      "outputs": [
        {
          "name": "",
          "type": "bool"
        }
      ],
      "payable": false,
      "stateMutability": "view",
      "type": "function"
    },
    {
      "constant": false,
      "inputs": [
        {
          "name": "_id",
          "type": "uint40"
        }
      ],
      "name": "withdraw",
      "outputs": [],
      "payable": false,
      "stateMutability": "nonpayable",
      "type": "function"
    },
    {
      "constant": true,
      "inputs": [
        {
          "name": "_id",
          "type": "uint40"
        }
      ],
      "name": "isEnded",
      "outputs": [
        {
          "name": "",
          "type": "bool"
        }
      ],
      "payable": false,
      "stateMutability": "view",
      "type": "function"
    },
    {
      "constant": true,
      "inputs": [
        {
          "name": "_address",
          "type": "address"
        }
      ],
      "name": "isMember",
      "outputs": [
        {
          "name": "",
          "type": "bool"
        }
      ],
      "payable": false,
      "stateMutability": "view",
      "type": "function"
    },
    {
      "constant": true,
      "inputs": [
        {
          "name": "_id",
          "type": "uint40"
        }
      ],
      "name": "isStakeable",
      "outputs": [
        {
          "name": "",
          "type": "bool"
        }
      ],
      "payable": false,
      "stateMutability": "view",
      "type": "function"
    },
    {
      "constant": true,
      "inputs": [
        {
          "name": "_id",
          "type": "uint40"
        }
      ],
      "name": "isVotable",
      "outputs": [
        {
          "name": "",
          "type": "bool"
        }
      ],
      "payable": false,
      "stateMutability": "view",
      "type": "function"
    }
  ],
  "bytecode": "0x60606040526101f460035560c86004556119006005556032600655602b600755611770600855611770600955600a8055341561003a57600080fd5b60405160608061198583398101604052808051906020019091908051906020019091908051906020019091905050826000806101000a81548173ffffffffffffffffffffffffffffffffffffffff021916908373ffffffffffffffffffffffffffffffffffffffff16021790555081600160006101000a81548173ffffffffffffffffffffffffffffffffffffffff021916908373ffffffffffffffffffffffffffffffffffffffff160217905550600160009054906101000a900473ffffffffffffffffffffffffffffffffffffffff1673ffffffffffffffffffffffffffffffffffffffff1663313ce5676000604051602001526040518163ffffffff167c0100000000000000000000000000000000000000000000000000000000028152600401602060405180830381600087803b151561017757600080fd5b6102c65a03f1151561018857600080fd5b5050506040518051905060ff16600a0a600281905550806009819055505050506117ce806101b76000396000f30060606040526004361061011d576000357c0100000000000000000000000000000000000000000000000000000000900463ffffffff1680630d20c8241461012257806331bedadb1461014b5780634654ff051461018057806355273fc3146101a957806358df20b7146102195780636afb630a1461025b5780636f6feb06146102845780637258a776146102ae5780637b103999146102ec5780639945150a1461034157806399f86ecb14610383578063a230c524146103ac578063aea5fa5e146103fd578063b2023dd81461045e578063baaaca5f14610487578063c4780fae146104ba578063d4f432f9146104e3578063e47892bb1461050c578063f82af8f814610535578063f9500f6414610577578063fc0c546a146105a0575b600080fd5b341561012d57600080fd5b6101356105f5565b6040518082815260200191505060405180910390f35b341561015657600080fd5b61017e600480803564ffffffffff1690602001909190803515159060200190919050506105fb565b005b341561018b57600080fd5b610193610764565b6040518082815260200191505060405180910390f35b34156101b457600080fd5b6101d1600480803564ffffffffff1690602001909190505061076a565b60405180868152602001858152602001841515151581526020018360028111156101f757fe5b60ff168152602001821515151581526020019550505050505060405180910390f35b341561022457600080fd5b610241600480803564ffffffffff169060200190919050506107c7565b604051808215151515815260200191505060405180910390f35b341561026657600080fd5b61026e610832565b6040518082815260200191505060405180910390f35b341561028f57600080fd5b6102ac600480803564ffffffffff16906020019091905050610838565b005b34156102b957600080fd5b6102ea600480803564ffffffffff169060200190919080351515906020019091908035906020019091905050610bf5565b005b34156102f757600080fd5b6102ff610f74565b604051808273ffffffffffffffffffffffffffffffffffffffff1673ffffffffffffffffffffffffffffffffffffffff16815260200191505060405180910390f35b341561034c57600080fd5b610369600480803564ffffffffff16906020019091905050610f99565b604051808215151515815260200191505060405180910390f35b341561038e57600080fd5b610396611017565b6040518082815260200191505060405180910390f35b34156103b757600080fd5b6103e3600480803573ffffffffffffffffffffffffffffffffffffffff1690602001909190505061101d565b604051808215151515815260200191505060405180910390f35b341561040857600080fd5b610444600480803564ffffffffff1690602001909190803573ffffffffffffffffffffffffffffffffffffffff1690602001909190505061121c565b604051808215151515815260200191505060405180910390f35b341561046957600080fd5b61047161129a565b6040518082815260200191505060405180910390f35b341561049257600080fd5b6104b8600480803564ffffffffff169060200190919080359060200190919050506112a0565b005b34156104c557600080fd5b6104cd611579565b6040518082815260200191505060405180910390f35b34156104ee57600080fd5b6104f661157f565b6040518082815260200191505060405180910390f35b341561051757600080fd5b61051f611585565b6040518082815260200191505060405180910390f35b341561054057600080fd5b61055d600480803564ffffffffff1690602001909190505061158b565b604051808215151515815260200191505060405180910390f35b341561058257600080fd5b61058a61163d565b6040518082815260200191505060405180910390f35b34156105ab57600080fd5b6105b3611643565b604051808273ffffffffffffffffffffffffffffffffffffffff1673ffffffffffffffffffffffffffffffffffffffff16815260200191505060405180910390f35b60055481565b6000806106073361101d565b151561061257600080fd5b61061b846107c7565b151561062657600080fd5b600b60008564ffffffffff1664ffffffffff16815260200190815260200160002091508160060160003373ffffffffffffffffffffffffffffffffffffffff1673ffffffffffffffffffffffffffffffffffffffff16815260200190815260200160002060009054906101000a900460ff161515156106a457600080fd5b6002808111156106b057fe5b8260020160019054906101000a900460ff1660028111156106cd57fe5b1415156106d957600080fd5b6001905060018260060160003373ffffffffffffffffffffffffffffffffffffffff1673ffffffffffffffffffffffffffffffffffffffff16815260200190815260200160002060006101000a81548160ff02191690831515021790555080826005016000851515151581526020019081526020016000206000828254019250508190555050505050565b60095481565b600b6020528060005260406000206000915090508060000154908060010154908060020160009054906101000a900460ff16908060020160019054906101000a900460ff16908060020160029054906101000a900460ff16905085565b600080600b60008464ffffffffff1664ffffffffff16815260200190815260200160002090506002808111156107f957fe5b8160020160019054906101000a900460ff16600281111561081657fe5b14801561082a575060095481600101540143105b915050919050565b60085481565b60008060008060006108498661158b565b151561085457600080fd5b600b60008764ffffffffff1664ffffffffff16815260200190815260200160002094508460020160009054906101000a900460ff16935060028081111561089757fe5b8560020160019054906101000a900460ff1660028111156108b457fe5b1415610a5c5784600501600080151515158152602001908152602001600020548560050160006001151515158152602001908152602001600020541193508460020160029054906101000a900460ff161515610a5b576064600a548660030160008715151515158152602001908152602001600020540281151561093457fe5b04925082856003016000861515151515815260200190815260200160002060008282540392505081905550600160009054906101000a900473ffffffffffffffffffffffffffffffffffffffff1673ffffffffffffffffffffffffffffffffffffffff1663a9059cbb6002856000604051602001526040518363ffffffff167c0100000000000000000000000000000000000000000000000000000000028152600401808373ffffffffffffffffffffffffffffffffffffffff16815260200182815260200192505050602060405180830381600087803b1515610a1757600080fd5b6102c65a03f11515610a2857600080fd5b505050604051805190501515610a3d57600080fd5b60018560020160026101000a81548160ff0219169083151502179055505b5b8460040160008515151515815260200190815260200160002060003373ffffffffffffffffffffffffffffffffffffffff1673ffffffffffffffffffffffffffffffffffffffff16815260200190815260200160002054915084600301600085151515158152602001908152602001600020548286600301600087151515151581526020019081526020016000205402811515610af557fe5b049050600160009054906101000a900473ffffffffffffffffffffffffffffffffffffffff1673ffffffffffffffffffffffffffffffffffffffff1663a9059cbb338385016000604051602001526040518363ffffffff167c0100000000000000000000000000000000000000000000000000000000028152600401808373ffffffffffffffffffffffffffffffffffffffff1673ffffffffffffffffffffffffffffffffffffffff16815260200182815260200192505050602060405180830381600087803b1515610bc757600080fd5b6102c65a03f11515610bd857600080fd5b505050604051805190501515610bed57600080fd5b505050505050565b6000806000600b60008764ffffffffff1664ffffffffff1681526020019081526020016000209250610c2686610f99565b1515610c3157600080fd5b8260020160009054906101000a900460ff16151585151514151515610c5557600080fd5b8260030160008460020160009054906101000a900460ff16151515151581526020019081526020016000205460646004548560030160008760020160009054906101000a900460ff161515151581526020019081526020016000205402811515610cbb57fe5b0403915081841115610ccb578193505b8260030160008015151515815260200190815260200160002054836003016000600115151515815260200190815260200160002054016002546005540203905080841115610d17578093505b7fad7c87b11456fab3d69245f95442061bce96cb3c345293507ec8bae59023990f8282604051808381526020018281526020019250505060405180910390a1600160009054906101000a900473ffffffffffffffffffffffffffffffffffffffff1673ffffffffffffffffffffffffffffffffffffffff166323b872dd3330876000604051602001526040518463ffffffff167c0100000000000000000000000000000000000000000000000000000000028152600401808473ffffffffffffffffffffffffffffffffffffffff1673ffffffffffffffffffffffffffffffffffffffff1681526020018373ffffffffffffffffffffffffffffffffffffffff1673ffffffffffffffffffffffffffffffffffffffff1681526020018281526020019350505050602060405180830381600087803b1515610e5757600080fd5b6102c65a03f11515610e6857600080fd5b505050604051805190501515610e7d57600080fd5b838360040160008715151515815260200190815260200160002060003373ffffffffffffffffffffffffffffffffffffffff1673ffffffffffffffffffffffffffffffffffffffff1681526020019081526020016000206000828254019250508190555083836003016000871515151581526020019081526020016000206000828254019250508190555081841415610f1a57610f1986611669565b5b6002546006540284101515610f33574383600101819055505b60fa6008548460000154010343101515610f5557610f5086611705565b610f6c565b80841415610f6b57610f6686611705565b610f6c565b5b505050505050565b6000809054906101000a900473ffffffffffffffffffffffffffffffffffffffff1681565b600080600b60008464ffffffffff1664ffffffffff168152602001908152602001600020905060016002811115610fcc57fe5b8160020160019054906101000a900460ff166002811115610fe957fe5b14801561100f575060085481600001540143108061100e575060075481600101540143105b5b915050919050565b60025481565b60008060008060009054906101000a900473ffffffffffffffffffffffffffffffffffffffff1673ffffffffffffffffffffffffffffffffffffffff1663730ecf34856000604051602001526040518263ffffffff167c0100000000000000000000000000000000000000000000000000000000028152600401808273ffffffffffffffffffffffffffffffffffffffff1673ffffffffffffffffffffffffffffffffffffffff168152602001915050602060405180830381600087803b15156110e657600080fd5b6102c65a03f115156110f757600080fd5b50505060405180519050915060006c0100000000000000000000000002826bffffffffffffffffffffffff191614156111335760009250611215565b6000809054906101000a900473ffffffffffffffffffffffffffffffffffffffff1673ffffffffffffffffffffffffffffffffffffffff16634f80cc54836000604051602001526040518263ffffffff167c010000000000000000000000000000000000000000000000000000000002815260040180826bffffffffffffffffffffffff19166bffffffffffffffffffffffff19168152602001915050602060405180830381600087803b15156111e957600080fd5b6102c65a03f115156111fa57600080fd5b5050506040518051905090506003548163ffffffff16101592505b5050919050565b600080600b60008564ffffffffff1664ffffffffff16815260200190815260200160002090508060060160008473ffffffffffffffffffffffffffffffffffffffff1673ffffffffffffffffffffffffffffffffffffffff16815260200190815260200160002060009054906101000a900460ff1691505092915050565b600a5481565b60008060028111156112ae57fe5b600b60008564ffffffffff1664ffffffffff16815260200190815260200160002060020160019054906101000a900460ff1660028111156112eb57fe5b1415156112f757600080fd5b60025460065402821015151561130c57600080fd5b600160009054906101000a900473ffffffffffffffffffffffffffffffffffffffff1673ffffffffffffffffffffffffffffffffffffffff166323b872dd3330856000604051602001526040518463ffffffff167c0100000000000000000000000000000000000000000000000000000000028152600401808473ffffffffffffffffffffffffffffffffffffffff1673ffffffffffffffffffffffffffffffffffffffff1681526020018373ffffffffffffffffffffffffffffffffffffffff1673ffffffffffffffffffffffffffffffffffffffff1681526020018281526020019350505050602060405180830381600087803b151561140d57600080fd5b6102c65a03f1151561141e57600080fd5b50505060405180519050151561143357600080fd5b600b60008464ffffffffff1664ffffffffff168152602001908152602001600020905043816000018190555060018160020160006101000a81548160ff02191690831515021790555060018160020160016101000a81548160ff0219169083600281111561149d57fe5b02179055508181600301600060011515151581526020019081526020016000206000828254019250508190555081816004016000600115151515815260200190815260200160002060003373ffffffffffffffffffffffffffffffffffffffff1673ffffffffffffffffffffffffffffffffffffffff168152602001908152602001600020600082825401925050819055507f47e1797ffc0e17855ef04461d1a1b2bd96842b879ca5b19d259eb874da54463a83604051808264ffffffffff1664ffffffffff16815260200191505060405180910390a1505050565b60075481565b60035481565b60065481565b600080600b60008464ffffffffff1664ffffffffff1681526020019081526020016000209050600160028111156115be57fe5b8160020160019054906101000a900460ff1660028111156115db57fe5b14156115f2576115ea83610f99565b159150611637565b6002808111156115fe57fe5b8160020160019054906101000a900460ff16600281111561161b57fe5b14156116325761162a836107c7565b159150611637565b600091505b50919050565b60045481565b600160009054906101000a900473ffffffffffffffffffffffffffffffffffffffff1681565b6000600b60008364ffffffffff1664ffffffffff16815260200190815260200160002090508060020160009054906101000a900460ff16158160020160006101000a81548160ff0219169083151502179055507f90bdc9335f96f43e4024aa283980f72fae0304ed6d264672e7e85cbca61157d282604051808264ffffffffff1664ffffffffff16815260200191505060405180910390a15050565b6000600b60008364ffffffffff1664ffffffffff168152602001908152602001600020905060028160020160016101000a81548160ff0219169083600281111561174b57fe5b02179055504381600101819055507f3ad429b2cb1f6eeb653ee845f2e4e3fb059b47e177ab670f7b7019b0cd784aa482604051808264ffffffffff1664ffffffffff16815260200191505060405180910390a150505600a165627a7a72305820254a090519e87c84c5c6a4cd830c42fb98d0d0905e08d14da057178dc4c9e7250029",
  "source": "pragma solidity ^0.4.19;\n\nimport \"./Interfaces.sol\";\n\ncontract ContentDAO {\n\n    enum Stage                                       { NONE, ACTIVE, ADJUDICATION }\n\n    struct Post {\n      uint                                           startedAt;\n      uint                                           track;                     // use for lastSigStakeAt as well as adjudicationStartedAt\n      bool                                           liked;\n      Stage                                          stage;\n      bool                                           feePaid;\n      mapping(bool => uint)                          totals;\n      mapping(bool => mapping(address => uint))      stakes;\n      mapping(bool => uint)                          voteTotals;\n      mapping(address => bool)                       voted;\n    }\n\n    IRegistry                       public registry;\n    IToken                          public token;\n    uint                            public subunits;\n    uint                            public MEMBER_MIN_KARMA = 500;\n    uint                            public FLIP_PERCENT = 200;\n    uint                            public ADJUDICATION_THRESHOLD = 6400;\n    uint                            public SIG_STAKE = 50;                      // also serve as min stake? - yes\n    uint                            public SIG_STAKE_DELAY = 43;                // delays end of staking for 10min if sig stake occurs\n    uint                            public STAKE_DURATION = 6000;               // ~24 hrs\n    uint                            public VOTE_DURATION = 6000;                // ~24 hrs\n    uint                            public ADJUDICATION_FEE_PERCENT = 10;\n\n    mapping(uint40 => Post)         public posts;\n\n    event Opened(uint40 id);\n    event Flipped(uint40 id);\n    event StartAdjudication(uint40 id);\n    event Debug(uint num1, uint num2);\n\n    function ContentDAO (address _registry, address _token, uint _voteDuration) {\n        registry = IRegistry(_registry);\n        token = IToken(_token);\n        subunits = 10 ** uint(token.decimals());\n        VOTE_DURATION = _voteDuration;\n    }\n\n    function stake(uint40 _id, bool _vote, uint _amount) public {\n        Post storage post = posts[_id];\n        require( isStakeable(_id) );\n        // can only stake on losing side\n        require( _vote != post.liked );\n        // trim _amount\n        uint toFlip = (post.totals[post.liked] * FLIP_PERCENT / 100) - post.totals[!post.liked];\n        if(_amount > toFlip)\n            _amount = toFlip;                                                   // trim stake if over amount needed to flip - TODO fix this so can just stake without trim or chance of revert\n\n        uint toAdjudicate = ADJUDICATION_THRESHOLD*subunits - (post.totals[true] + post.totals[false]);\n        if(_amount > toAdjudicate)\n            _amount = toAdjudicate;\n\n        Debug(toFlip, toAdjudicate);\n\n        require( token.transferFrom(msg.sender, this, _amount) );\n\n        post.stakes[_vote][msg.sender] += _amount;\n        post.totals[_vote] += _amount;\n        if(_amount == toFlip) flip(_id);\n        if(_amount >= SIG_STAKE*subunits) post.track = block.number;\n\n        // if within final hour, trigger adjudication (250 blocks = 1 hr)\n        if(block.number >= post.startedAt + STAKE_DURATION - 250) {\n          startAdjudication(_id);\n          return;\n        }\n        // if total becomes over threshold, trigger adjudication\n        if(_amount == toAdjudicate) {\n          startAdjudication(_id);\n          return;\n        }\n    }\n\n    function flip(uint40 _id) internal {\n        Post storage post = posts[_id];\n        post.liked = !post.liked;\n        Flipped(_id);\n    }\n\n    function startAdjudication(uint40 _id) internal {\n        Post storage post = posts[_id];\n        post.stage = Stage.ADJUDICATION;\n        post.track = block.number;\n        StartAdjudication(_id);\n        // inAdjudication array?\n    }\n\n    function open(uint40 _id, uint _amount) public {\n        // not already existing\n        require( posts[_id].stage == Stage.NONE );\n        // over min stake\n        require( _amount >= SIG_STAKE*subunits );\n        // can transfer tokens\n        require( token.transferFrom(msg.sender, this, _amount) );\n        Post storage post = posts[_id];\n        post.startedAt = block.number;\n        post.liked = true;\n        post.stage = Stage.ACTIVE;\n        post.totals[true] += _amount;\n        post.stakes[true][msg.sender] += _amount;\n        Opened(_id);\n    }\n\n    function vote(uint40 _id, bool _vote) public {\n        require( isMember(msg.sender) );\n        require( isVotable(_id) );\n        Post storage post = posts[_id];\n        require( !post.voted[msg.sender] );\n        require( post.stage == Stage.ADJUDICATION );\n\n        uint weight = 1;                                                        // or karma? registry.getKarma(registry.ownerToUsername(msg.sender)\n        post.voted[msg.sender] = true;\n        post.voteTotals[_vote] += weight;\n    }\n\n    function voted(uint40 _id, address _address) public view returns(bool) {\n        Post storage post = posts[_id];\n        return post.voted[_address];\n    }\n\n    function withdraw(uint40 _id) public {\n        require( isEnded(_id) );\n        // get winning side\n        Post storage post = posts[_id];\n        bool liked = post.liked;\n        if( post.stage == Stage.ADJUDICATION  ) {\n            liked = post.voteTotals[true] > post.voteTotals[false];\n            if ( !post.feePaid ) {\n              uint fee = post.totals[!liked] * ADJUDICATION_FEE_PERCENT / 100;\n              post.totals[!liked] -= fee;\n\n              // TODO - do proper burn here as minime doesn't allow send to 0\n              require( token.transfer(2, fee) );\n              post.feePaid = true;\n            }\n        }\n\n        uint staked = post.stakes[liked][msg.sender];\n        uint award = post.totals[!liked] * staked / post.totals[liked];\n        // if adjudicated, get winning side\n        require( token.transfer(msg.sender, staked + award) );\n        // send and delete address=>stake mapping\n    }\n\n    function isEnded(uint40 _id) public view returns(bool) {\n        Post storage post = posts[_id];\n        if(post.stage == Stage.ACTIVE) return !isStakeable(_id);\n        else if(post.stage == Stage.ADJUDICATION) return !isVotable(_id);\n        else return false;\n    }\n\n    function isMember(address _address) public view returns(bool) {\n        bytes20 username = registry.ownerToUsername(_address);\n        if (username == 0 ) return false;\n\n        uint32 karma = registry.getKarma(username);\n        return karma >= MEMBER_MIN_KARMA;\n    }\n\n    function isStakeable(uint40 _id) public view returns (bool) {\n        Post storage post = posts[_id];\n        return post.stage == Stage.ACTIVE &&\n               ( block.number < post.startedAt + STAKE_DURATION ||\n                 block.number < post.track + SIG_STAKE_DELAY );\n    }\n\n    function isVotable(uint40 _id) public view returns (bool) {\n        Post storage post = posts[_id];\n        return post.stage == Stage.ADJUDICATION &&\n               block.number < post.track + VOTE_DURATION;\n    }\n\n}\n",
  "sourcePath": "/home/carl/Projects/recdao/contracts/contracts/ContentDAO.sol",
  "compiler": {
    "name": "solc",
    "version": "0.4.19+commit.c4cbbb05.Emscripten.clang"
  },
  "schemaVersion": "2.0.0",
  "updatedAt": "2018-03-23T13:45:33.032Z"
}