{
  "contractName": "ContentScore",
  "abi": [
    {
      "constant": true,
      "inputs": [
        {
          "name": "",
          "type": "uint40"
        }
      ],
      "name": "commentScores",
      "outputs": [
        {
          "name": "numUp",
          "type": "uint32"
        },
        {
          "name": "numDown",
          "type": "uint32"
        },
        {
          "name": "scoreUp",
          "type": "uint40"
        },
        {
          "name": "scoreDown",
          "type": "uint40"
        }
      ],
      "payable": false,
      "stateMutability": "view",
      "type": "function"
    },
    {
      "constant": true,
      "inputs": [
        {
          "name": "",
          "type": "bytes20"
        },
        {
          "name": "",
          "type": "uint40"
        }
      ],
      "name": "commentVotes",
      "outputs": [
        {
          "name": "",
          "type": "uint8"
        }
      ],
      "payable": false,
      "stateMutability": "view",
      "type": "function"
    },
    {
      "constant": true,
      "inputs": [
        {
          "name": "",
          "type": "bytes20"
        },
        {
          "name": "",
          "type": "uint40"
        }
      ],
      "name": "postVotes",
      "outputs": [
        {
          "name": "",
          "type": "uint8"
        }
      ],
      "payable": false,
      "stateMutability": "view",
      "type": "function"
    },
    {
      "constant": true,
      "inputs": [],
      "name": "registry",
      "outputs": [
        {
          "name": "",
          "type": "address"
        }
      ],
      "payable": false,
      "stateMutability": "view",
      "type": "function"
    },
    {
      "constant": true,
      "inputs": [
        {
          "name": "",
          "type": "uint40"
        }
      ],
      "name": "postScores",
      "outputs": [
        {
          "name": "numUp",
          "type": "uint32"
        },
        {
          "name": "numDown",
          "type": "uint32"
        },
        {
          "name": "scoreUp",
          "type": "uint40"
        },
        {
          "name": "scoreDown",
          "type": "uint40"
        }
      ],
      "payable": false,
      "stateMutability": "view",
      "type": "function"
    },
    {
      "inputs": [
        {
          "name": "_registry",
          "type": "address"
        }
      ],
      "payable": false,
      "stateMutability": "nonpayable",
      "type": "constructor"
    },
    {
      "anonymous": false,
      "inputs": [
        {
          "indexed": false,
          "name": "id",
          "type": "uint40"
        }
      ],
      "name": "Voted",
      "type": "event"
    },
    {
      "constant": false,
      "inputs": [
        {
          "name": "_type",
          "type": "uint8"
        },
        {
          "name": "_id",
          "type": "uint40"
        },
        {
          "name": "_vote",
          "type": "uint8"
        }
      ],
      "name": "vote",
      "outputs": [],
      "payable": false,
      "stateMutability": "nonpayable",
      "type": "function"
    }
  ],
  "bytecode": "0x6060604052341561000f57600080fd5b604051602080610e4e83398101604052808051906020019091905050806000806101000a81548173ffffffffffffffffffffffffffffffffffffffff021916908373ffffffffffffffffffffffffffffffffffffffff16021790555050610dd38061007b6000396000f300606060405260043610610078576000357c0100000000000000000000000000000000000000000000000000000000900463ffffffff16806330da45261461007d57806354e735801461010457806379f5ed38146101685780637b103999146101cc578063ed12e15c14610221578063f8d3ce5e14610263575b600080fd5b341561008857600080fd5b6100a5600480803564ffffffffff169060200190919050506102ea565b604051808563ffffffff1663ffffffff1681526020018463ffffffff1663ffffffff1681526020018364ffffffffff1664ffffffffff1681526020018264ffffffffff1664ffffffffff16815260200194505050505060405180910390f35b341561010f57600080fd5b61014460048080356bffffffffffffffffffffffff191690602001909190803564ffffffffff1690602001909190505061035c565b6040518082600281111561015457fe5b60ff16815260200191505060405180910390f35b341561017357600080fd5b6101a860048080356bffffffffffffffffffffffff191690602001909190803564ffffffffff1690602001909190505061038b565b604051808260028111156101b857fe5b60ff16815260200191505060405180910390f35b34156101d757600080fd5b6101df6103ba565b604051808273ffffffffffffffffffffffffffffffffffffffff1673ffffffffffffffffffffffffffffffffffffffff16815260200191505060405180910390f35b341561022c57600080fd5b610261600480803560ff1690602001909190803564ffffffffff1690602001909190803560ff169060200190919050506103df565b005b341561026e57600080fd5b61028b600480803564ffffffffff16906020019091905050610d35565b604051808563ffffffff1663ffffffff1681526020018463ffffffff1663ffffffff1681526020018364ffffffffff1664ffffffffff1681526020018264ffffffffff1664ffffffffff16815260200194505050505060405180910390f35b60026020528060005260406000206000915090508060000160009054906101000a900463ffffffff16908060000160049054906101000a900463ffffffff16908060000160089054906101000a900464ffffffffff169080600001600d9054906101000a900464ffffffffff16905084565b60046020528160005260406000206020528060005260406000206000915091509054906101000a900460ff1681565b60036020528160005260406000206020528060005260406000206000915091509054906101000a900460ff1681565b6000809054906101000a900473ffffffffffffffffffffffffffffffffffffffff1681565b60008060008060009054906101000a900473ffffffffffffffffffffffffffffffffffffffff1673ffffffffffffffffffffffffffffffffffffffff1663730ecf34336000604051602001526040518263ffffffff167c0100000000000000000000000000000000000000000000000000000000028152600401808273ffffffffffffffffffffffffffffffffffffffff1673ffffffffffffffffffffffffffffffffffffffff168152602001915050602060405180830381600087803b15156104a857600080fd5b6102c65a03f115156104b957600080fd5b50505060405180519050925060006c0100000000000000000000000002836bffffffffffffffffffffffff1916141515156104f357600080fd5b6000600181111561050057fe5b86600181111561050c57fe5b141561059a57600160008664ffffffffff1664ffffffffff168152602001908152602001600020915060036000846bffffffffffffffffffffffff19166bffffffffffffffffffffffff1916815260200190815260200160002060008664ffffffffff1664ffffffffff16815260200190815260200160002060009054906101000a900460ff16905061061e565b600260008664ffffffffff1664ffffffffff168152602001908152602001600020915060046000846bffffffffffffffffffffffff19166bffffffffffffffffffffffff1916815260200190815260200160002060008664ffffffffff1664ffffffffff16815260200190815260200160002060009054906101000a900460ff1690505b83600281111561062a57fe5b81600281111561063657fe5b1415151561064357600080fd5b6000600281111561065057fe5b81600281111561065c57fe5b141515610946576001600281111561067057fe5b81600281111561067c57fe5b14156107d65781600001600081819054906101000a900463ffffffff16809291906001900391906101000a81548163ffffffff021916908363ffffffff160217905550506000809054906101000a900473ffffffffffffffffffffffffffffffffffffffff1673ffffffffffffffffffffffffffffffffffffffff16634f80cc54846000604051602001526040518263ffffffff167c010000000000000000000000000000000000000000000000000000000002815260040180826bffffffffffffffffffffffff19166bffffffffffffffffffffffff19168152602001915050602060405180830381600087803b151561077657600080fd5b6102c65a03f1151561078757600080fd5b5050506040518051905063ffffffff168260000160088282829054906101000a900464ffffffffff160392506101000a81548164ffffffffff021916908364ffffffffff160217905550610945565b6002808111156107e257fe5b8160028111156107ee57fe5b14156109445781600001600481819054906101000a900463ffffffff16809291906001900391906101000a81548163ffffffff021916908363ffffffff160217905550506000809054906101000a900473ffffffffffffffffffffffffffffffffffffffff1673ffffffffffffffffffffffffffffffffffffffff16634f80cc54846000604051602001526040518263ffffffff167c010000000000000000000000000000000000000000000000000000000002815260040180826bffffffffffffffffffffffff19166bffffffffffffffffffffffff19168152602001915050602060405180830381600087803b15156108e857600080fd5b6102c65a03f115156108f957600080fd5b5050506040518051905063ffffffff1682600001600d8282829054906101000a900464ffffffffff160392506101000a81548164ffffffffff021916908364ffffffffff1602179055505b5b5b6000600181111561095357fe5b86600181111561095f57fe5b14156109db578360036000856bffffffffffffffffffffffff19166bffffffffffffffffffffffff1916815260200190815260200160002060008764ffffffffff1664ffffffffff16815260200190815260200160002060006101000a81548160ff021916908360028111156109d157fe5b0217905550610a4d565b8360046000856bffffffffffffffffffffffff19166bffffffffffffffffffffffff1916815260200190815260200160002060008764ffffffffff1664ffffffffff16815260200190815260200160002060006101000a81548160ff02191690836002811115610a4757fe5b02179055505b60016002811115610a5a57fe5b846002811115610a6657fe5b1415610bbf5781600001600081819054906101000a900463ffffffff168092919060010191906101000a81548163ffffffff021916908363ffffffff160217905550506000809054906101000a900473ffffffffffffffffffffffffffffffffffffffff1673ffffffffffffffffffffffffffffffffffffffff16634f80cc54846000604051602001526040518263ffffffff167c010000000000000000000000000000000000000000000000000000000002815260040180826bffffffffffffffffffffffff19166bffffffffffffffffffffffff19168152602001915050602060405180830381600087803b1515610b5f57600080fd5b6102c65a03f11515610b7057600080fd5b5050506040518051905063ffffffff168260000160088282829054906101000a900464ffffffffff160192506101000a81548164ffffffffff021916908364ffffffffff160217905550610d2d565b600280811115610bcb57fe5b846002811115610bd757fe5b1415610d2c5781600001600481819054906101000a900463ffffffff168092919060010191906101000a81548163ffffffff021916908363ffffffff160217905550506000809054906101000a900473ffffffffffffffffffffffffffffffffffffffff1673ffffffffffffffffffffffffffffffffffffffff16634f80cc54846000604051602001526040518263ffffffff167c010000000000000000000000000000000000000000000000000000000002815260040180826bffffffffffffffffffffffff19166bffffffffffffffffffffffff19168152602001915050602060405180830381600087803b1515610cd057600080fd5b6102c65a03f11515610ce157600080fd5b5050506040518051905063ffffffff1682600001600d8282829054906101000a900464ffffffffff160192506101000a81548164ffffffffff021916908364ffffffffff1602179055505b5b505050505050565b60016020528060005260406000206000915090508060000160009054906101000a900463ffffffff16908060000160049054906101000a900463ffffffff16908060000160089054906101000a900464ffffffffff169080600001600d9054906101000a900464ffffffffff169050845600a165627a7a72305820376223c11f3e6f913e1bb7a0894ac20cad183c9321b467880c529842a08192d50029",
  "source": "pragma solidity ^0.4.19;\n\nimport \"./Interfaces.sol\";\n\ncontract ContentScore {\n\n    enum Vote                         { NEUTRAL, UP, DOWN }\n    enum Type                         { POST, COMMENT }\n\n    struct Score {\n        uint32                        numUp;\n        uint32                        numDown;\n        uint40                        scoreUp;\n        uint40                        scoreDown;\n    }\n\n    IRegistry                                             public registry;\n    mapping(uint40 => Score)                              public postScores;\n    mapping(uint40 => Score)                              public commentScores;\n    mapping(bytes20 => mapping(uint40 => Vote))           public postVotes;\n    mapping(bytes20 => mapping(uint40 => Vote))           public commentVotes;\n\n    event Voted(uint40 id);\n\n    function ContentScore (address _registry) {\n        registry = IRegistry(_registry);\n    }\n\n    function vote(Type _type, uint40 _id, Vote _vote) public {\n        bytes20 username = registry.ownerToUsername(msg.sender);\n        require( username != 0 );                                               // require registered\n\n        Score score;\n        Vote existingVote;\n\n        if(_type == Type.POST) {\n            score = postScores[_id];\n            existingVote = postVotes[username][_id];\n        } else {\n            score = commentScores[_id];\n            existingVote = commentVotes[username][_id];\n        }\n\n        require(existingVote != _vote);\n\n        if(existingVote != Vote.NEUTRAL) {\n            // make adjustments\n            if (existingVote == Vote.UP) {\n              score.numUp--;\n              score.scoreUp -= registry.getKarma(username);\n            } else if (existingVote == Vote.DOWN) {\n              score.numDown--;\n              score.scoreDown -= registry.getKarma(username);\n            }\n        }\n\n        if(_type == Type.POST) {\n            postVotes[username][_id] = _vote;\n        } else {\n            commentVotes[username][_id] = _vote;\n        }\n\n        if (_vote == Vote.UP) {\n          score.numUp++;\n          score.scoreUp += registry.getKarma(username);\n        } else if (_vote == Vote.DOWN) {\n          score.numDown++;\n          score.scoreDown += registry.getKarma(username);\n        }\n    }\n\n}\n",
  "sourcePath": "/home/carl/Projects/recdao/contracts/contracts/ContentScore.sol",
  "compiler": {
    "name": "solc",
    "version": "0.4.19+commit.c4cbbb05.Emscripten.clang"
  },
  "schemaVersion": "2.0.0",
  "updatedAt": "2018-03-27T11:56:58.079Z"
}