{
  "contractName": "ContentDAO",
  "abi": [
    {
      "constant": true,
      "inputs": [],
      "name": "ADJUDICATION_THRESHOLD",
      "outputs": [
        {
          "name": "",
          "type": "uint256"
        }
      ],
      "payable": false,
      "stateMutability": "view",
      "type": "function"
    },
    {
      "constant": true,
      "inputs": [],
      "name": "VOTE_DURATION",
      "outputs": [
        {
          "name": "",
          "type": "uint256"
        }
      ],
      "payable": false,
      "stateMutability": "view",
      "type": "function"
    },
    {
      "constant": true,
      "inputs": [
        {
          "name": "",
          "type": "uint40"
        }
      ],
      "name": "posts",
      "outputs": [
        {
          "name": "startedAt",
          "type": "uint256"
        },
        {
          "name": "lastSigStakeAt",
          "type": "uint256"
        },
        {
          "name": "toFlip",
          "type": "uint256"
        },
        {
          "name": "liked",
          "type": "bool"
        },
        {
          "name": "stage",
          "type": "uint8"
        },
        {
          "name": "feePaid",
          "type": "bool"
        }
      ],
      "payable": false,
      "stateMutability": "view",
      "type": "function"
    },
    {
      "constant": true,
      "inputs": [],
      "name": "STAKE_DURATION",
      "outputs": [
        {
          "name": "",
          "type": "uint256"
        }
      ],
      "payable": false,
      "stateMutability": "view",
      "type": "function"
    },
    {
      "constant": true,
      "inputs": [],
      "name": "registry",
      "outputs": [
        {
          "name": "",
          "type": "address"
        }
      ],
      "payable": false,
      "stateMutability": "view",
      "type": "function"
    },
    {
      "constant": true,
      "inputs": [],
      "name": "subunits",
      "outputs": [
        {
          "name": "",
          "type": "uint256"
        }
      ],
      "payable": false,
      "stateMutability": "view",
      "type": "function"
    },
    {
      "constant": true,
      "inputs": [],
      "name": "ADJUDICATION_FEE_PERCENT",
      "outputs": [
        {
          "name": "",
          "type": "uint256"
        }
      ],
      "payable": false,
      "stateMutability": "view",
      "type": "function"
    },
    {
      "constant": true,
      "inputs": [],
      "name": "SIG_STAKE_DELAY",
      "outputs": [
        {
          "name": "",
          "type": "uint256"
        }
      ],
      "payable": false,
      "stateMutability": "view",
      "type": "function"
    },
    {
      "constant": true,
      "inputs": [],
      "name": "MEMBER_MIN_KARMA",
      "outputs": [
        {
          "name": "",
          "type": "uint256"
        }
      ],
      "payable": false,
      "stateMutability": "view",
      "type": "function"
    },
    {
      "constant": true,
      "inputs": [],
      "name": "SIG_STAKE",
      "outputs": [
        {
          "name": "",
          "type": "uint256"
        }
      ],
      "payable": false,
      "stateMutability": "view",
      "type": "function"
    },
    {
      "constant": true,
      "inputs": [],
      "name": "FLIP_PERCENT",
      "outputs": [
        {
          "name": "",
          "type": "uint256"
        }
      ],
      "payable": false,
      "stateMutability": "view",
      "type": "function"
    },
    {
      "constant": true,
      "inputs": [],
      "name": "token",
      "outputs": [
        {
          "name": "",
          "type": "address"
        }
      ],
      "payable": false,
      "stateMutability": "view",
      "type": "function"
    },
    {
      "inputs": [
        {
          "name": "_registry",
          "type": "address"
        },
        {
          "name": "_token",
          "type": "address"
        }
      ],
      "payable": false,
      "stateMutability": "nonpayable",
      "type": "constructor"
    },
    {
      "constant": false,
      "inputs": [
        {
          "name": "_id",
          "type": "uint40"
        },
        {
          "name": "_vote",
          "type": "bool"
        },
        {
          "name": "_amount",
          "type": "uint256"
        }
      ],
      "name": "stake",
      "outputs": [],
      "payable": false,
      "stateMutability": "nonpayable",
      "type": "function"
    },
    {
      "constant": false,
      "inputs": [
        {
          "name": "_id",
          "type": "uint40"
        },
        {
          "name": "_amount",
          "type": "uint256"
        }
      ],
      "name": "open",
      "outputs": [],
      "payable": false,
      "stateMutability": "nonpayable",
      "type": "function"
    },
    {
      "constant": false,
      "inputs": [
        {
          "name": "_id",
          "type": "uint40"
        },
        {
          "name": "_vote",
          "type": "bool"
        }
      ],
      "name": "vote",
      "outputs": [],
      "payable": false,
      "stateMutability": "nonpayable",
      "type": "function"
    },
    {
      "constant": false,
      "inputs": [
        {
          "name": "_id",
          "type": "uint40"
        }
      ],
      "name": "withdraw",
      "outputs": [],
      "payable": false,
      "stateMutability": "nonpayable",
      "type": "function"
    },
    {
      "constant": true,
      "inputs": [
        {
          "name": "_id",
          "type": "uint40"
        }
      ],
      "name": "isEnded",
      "outputs": [
        {
          "name": "",
          "type": "bool"
        }
      ],
      "payable": false,
      "stateMutability": "view",
      "type": "function"
    },
    {
      "constant": true,
      "inputs": [
        {
          "name": "_address",
          "type": "address"
        }
      ],
      "name": "isMember",
      "outputs": [
        {
          "name": "",
          "type": "bool"
        }
      ],
      "payable": false,
      "stateMutability": "view",
      "type": "function"
    },
    {
      "constant": true,
      "inputs": [
        {
          "name": "_id",
          "type": "uint40"
        }
      ],
      "name": "isStakeable",
      "outputs": [
        {
          "name": "",
          "type": "bool"
        }
      ],
      "payable": false,
      "stateMutability": "view",
      "type": "function"
    },
    {
      "constant": true,
      "inputs": [
        {
          "name": "_id",
          "type": "uint40"
        }
      ],
      "name": "isVotable",
      "outputs": [
        {
          "name": "",
          "type": "bool"
        }
      ],
      "payable": false,
      "stateMutability": "view",
      "type": "function"
    }
  ],
  "bytecode": "0x60606040526101f460035560c86004556108346005556032600655602b600755611770600855611770600955600a8055341561003a57600080fd5b60405160408061189883398101604052808051906020019091908051906020019091905050816000806101000a81548173ffffffffffffffffffffffffffffffffffffffff021916908373ffffffffffffffffffffffffffffffffffffffff16021790555080600160006101000a81548173ffffffffffffffffffffffffffffffffffffffff021916908373ffffffffffffffffffffffffffffffffffffffff160217905550600160009054906101000a900473ffffffffffffffffffffffffffffffffffffffff1673ffffffffffffffffffffffffffffffffffffffff1663313ce5676000604051602001526040518163ffffffff167c0100000000000000000000000000000000000000000000000000000000028152600401602060405180830381600087803b151561016e57600080fd5b6102c65a03f1151561017f57600080fd5b5050506040518051905060ff16600a0a60028190555050506116f2806101a66000396000f300606060405260043610610112576000357c0100000000000000000000000000000000000000000000000000000000900463ffffffff1680630d20c8241461011757806331bedadb146101405780634654ff051461017557806355273fc31461019e57806358df20b7146102155780636afb630a146102575780636f6feb06146102805780637258a776146102aa5780637b103999146102e85780639945150a1461033d57806399f86ecb1461037f578063a230c524146103a8578063b2023dd8146103f9578063baaaca5f14610422578063c4780fae14610455578063d4f432f91461047e578063e47892bb146104a7578063f82af8f8146104d0578063f9500f6414610512578063fc0c546a1461053b575b600080fd5b341561012257600080fd5b61012a610590565b6040518082815260200191505060405180910390f35b341561014b57600080fd5b610173600480803564ffffffffff169060200190919080351515906020019091905050610596565b005b341561018057600080fd5b6101886106a4565b6040518082815260200191505060405180910390f35b34156101a957600080fd5b6101c6600480803564ffffffffff169060200190919050506106aa565b60405180878152602001868152602001858152602001841515151581526020018360028111156101f257fe5b60ff16815260200182151515158152602001965050505050505060405180910390f35b341561022057600080fd5b61023d600480803564ffffffffff1690602001909190505061070d565b604051808215151515815260200191505060405180910390f35b341561026257600080fd5b61026a61077c565b6040518082815260200191505060405180910390f35b341561028b57600080fd5b6102a8600480803564ffffffffff16906020019091905050610782565b005b34156102b557600080fd5b6102e6600480803564ffffffffff169060200190919080351515906020019091908035906020019091905050610bc3565b005b34156102f357600080fd5b6102fb610fe7565b604051808273ffffffffffffffffffffffffffffffffffffffff1673ffffffffffffffffffffffffffffffffffffffff16815260200191505060405180910390f35b341561034857600080fd5b610365600480803564ffffffffff1690602001909190505061100c565b604051808215151515815260200191505060405180910390f35b341561038a57600080fd5b61039261108a565b6040518082815260200191505060405180910390f35b34156103b357600080fd5b6103df600480803573ffffffffffffffffffffffffffffffffffffffff16906020019091905050611090565b604051808215151515815260200191505060405180910390f35b341561040457600080fd5b61040c61128f565b6040518082815260200191505060405180910390f35b341561042d57600080fd5b610453600480803564ffffffffff16906020019091908035906020019091905050611295565b005b341561046057600080fd5b61046861157a565b6040518082815260200191505060405180910390f35b341561048957600080fd5b610491611580565b6040518082815260200191505060405180910390f35b34156104b257600080fd5b6104ba611586565b6040518082815260200191505060405180910390f35b34156104db57600080fd5b6104f8600480803564ffffffffff1690602001909190505061158c565b604051808215151515815260200191505060405180910390f35b341561051d57600080fd5b61052561163e565b6040518082815260200191505060405180910390f35b341561054657600080fd5b61054e611644565b604051808273ffffffffffffffffffffffffffffffffffffffff1673ffffffffffffffffffffffffffffffffffffffff16815260200191505060405180910390f35b60055481565b6000806105a233611090565b15156105ad57600080fd5b6105b68461070d565b15156105c157600080fd5b600b60008564ffffffffff1664ffffffffff16815260200190815260200160002091506002808111156105f057fe5b8260030160019054906101000a900460ff16600281111561060d57fe5b14151561061957600080fd5b6001905060018260070160003373ffffffffffffffffffffffffffffffffffffffff1673ffffffffffffffffffffffffffffffffffffffff16815260200190815260200160002060006101000a81548160ff02191690831515021790555080826006016000851515151581526020019081526020016000206000828254019250508190555050505050565b60095481565b600b6020528060005260406000206000915090508060000154908060010154908060020154908060030160009054906101000a900460ff16908060030160019054906101000a900460ff16908060030160029054906101000a900460ff16905086565b600080600b60008464ffffffffff1664ffffffffff168152602001908152602001600020905060028081111561073f57fe5b8160030160019054906101000a900460ff16600281111561075c57fe5b14801561077457506009546008548260000154010143105b915050919050565b60085481565b6000806000806107918561158c565b151561079c57600080fd5b600b60008664ffffffffff1664ffffffffff16815260200190815260200160002093508360030160009054906101000a900460ff1692506002808111156107df57fe5b8460030160019054906101000a900460ff1660028111156107fc57fe5b148015610847575060008460060160006001151515158152602001908152602001600020541180610846575060008460060160008015151515815260200190815260200160002054115b5b156109f75783600601600080151515158152602001908152602001600020548460060160006001151515158152602001908152602001600020541192508360030160029054906101000a900460ff1615156109f657600160009054906101000a900473ffffffffffffffffffffffffffffffffffffffff1673ffffffffffffffffffffffffffffffffffffffff166323b872dd3060006064600a548960040160008a15151515158152602001908152602001600020540281151561090757fe5b046000604051602001526040518463ffffffff167c0100000000000000000000000000000000000000000000000000000000028152600401808473ffffffffffffffffffffffffffffffffffffffff1673ffffffffffffffffffffffffffffffffffffffff1681526020018373ffffffffffffffffffffffffffffffffffffffff1681526020018281526020019350505050602060405180830381600087803b15156109b257600080fd5b6102c65a03f115156109c357600080fd5b5050506040518051905015156109d857600080fd5b60018460030160026101000a81548160ff0219169083151502179055505b5b8360050160008415151515815260200190815260200160002060003373ffffffffffffffffffffffffffffffffffffffff1673ffffffffffffffffffffffffffffffffffffffff16815260200190815260200160002054915083600401600084151515158152602001908152602001600020548285600401600086151515151581526020019081526020016000205402811515610a9057fe5b049050600160009054906101000a900473ffffffffffffffffffffffffffffffffffffffff1673ffffffffffffffffffffffffffffffffffffffff166323b872dd30338486016000604051602001526040518463ffffffff167c0100000000000000000000000000000000000000000000000000000000028152600401808473ffffffffffffffffffffffffffffffffffffffff1673ffffffffffffffffffffffffffffffffffffffff1681526020018373ffffffffffffffffffffffffffffffffffffffff1673ffffffffffffffffffffffffffffffffffffffff1681526020018281526020019350505050602060405180830381600087803b1515610b9657600080fd5b6102c65a03f11515610ba757600080fd5b505050604051805190501515610bbc57600080fd5b5050505050565b6000600b60008564ffffffffff1664ffffffffff1681526020019081526020016000209050610bf18461100c565b1515610bfc57600080fd5b8060030160009054906101000a900460ff16151583151514151515610c2057600080fd5b8060020154821115610c3457806002015491505b600160009054906101000a900473ffffffffffffffffffffffffffffffffffffffff1673ffffffffffffffffffffffffffffffffffffffff166323b872dd3330856000604051602001526040518463ffffffff167c0100000000000000000000000000000000000000000000000000000000028152600401808473ffffffffffffffffffffffffffffffffffffffff1673ffffffffffffffffffffffffffffffffffffffff1681526020018373ffffffffffffffffffffffffffffffffffffffff1673ffffffffffffffffffffffffffffffffffffffff1681526020018281526020019350505050602060405180830381600087803b1515610d3557600080fd5b6102c65a03f11515610d4657600080fd5b505050604051805190501515610d5b57600080fd5b818160050160008515151515815260200190815260200160002060003373ffffffffffffffffffffffffffffffffffffffff1673ffffffffffffffffffffffffffffffffffffffff168152602001908152602001600020600082825401925050819055508060020154821415610e6257610e618160c060405190810160405290816000820154815260200160018201548152602001600282015481526020016003820160009054906101000a900460ff161515151581526020016003820160019054906101000a900460ff166002811115610e3257fe5b6002811115610e3d57fe5b81526020016003820160029054906101000a900460ff16151515158152505061166a565b5b6002546006540282101515610e7b574381600101819055505b60fa6008548260000154010343101515610f2657610f258160c060405190810160405290816000820154815260200160018201548152602001600282015481526020016003820160009054906101000a900460ff161515151581526020016003820160019054906101000a900460ff166002811115610ef657fe5b6002811115610f0157fe5b81526020016003820160029054906101000a900460ff1615151515815250506116a0565b5b6005548160040160008515151515815260200190815260200160002054101515610fe157610fe08160c060405190810160405290816000820154815260200160018201548152602001600282015481526020016003820160009054906101000a900460ff161515151581526020016003820160019054906101000a900460ff166002811115610fb157fe5b6002811115610fbc57fe5b81526020016003820160029054906101000a900460ff1615151515815250506116a0565b5b50505050565b6000809054906101000a900473ffffffffffffffffffffffffffffffffffffffff1681565b600080600b60008464ffffffffff1664ffffffffff16815260200190815260200160002090506001600281111561103f57fe5b8160030160019054906101000a900460ff16600281111561105c57fe5b1480156110825750600854816000015401431080611081575060075481600101540143105b5b915050919050565b60025481565b60008060008060009054906101000a900473ffffffffffffffffffffffffffffffffffffffff1673ffffffffffffffffffffffffffffffffffffffff1663730ecf34856000604051602001526040518263ffffffff167c0100000000000000000000000000000000000000000000000000000000028152600401808273ffffffffffffffffffffffffffffffffffffffff1673ffffffffffffffffffffffffffffffffffffffff168152602001915050602060405180830381600087803b151561115957600080fd5b6102c65a03f1151561116a57600080fd5b50505060405180519050915060006c0100000000000000000000000002826bffffffffffffffffffffffff191614156111a65760009250611288565b6000809054906101000a900473ffffffffffffffffffffffffffffffffffffffff1673ffffffffffffffffffffffffffffffffffffffff16634f80cc54836000604051602001526040518263ffffffff167c010000000000000000000000000000000000000000000000000000000002815260040180826bffffffffffffffffffffffff19166bffffffffffffffffffffffff19168152602001915050602060405180830381600087803b151561125c57600080fd5b6102c65a03f1151561126d57600080fd5b5050506040518051905090506003548163ffffffff16101592505b5050919050565b600a5481565b60008060028111156112a357fe5b600b60008564ffffffffff1664ffffffffff16815260200190815260200160002060030160019054906101000a900460ff1660028111156112e057fe5b1415156112ec57600080fd5b60025460065402821015151561130157600080fd5b600160009054906101000a900473ffffffffffffffffffffffffffffffffffffffff1673ffffffffffffffffffffffffffffffffffffffff166323b872dd3330856000604051602001526040518463ffffffff167c0100000000000000000000000000000000000000000000000000000000028152600401808473ffffffffffffffffffffffffffffffffffffffff1673ffffffffffffffffffffffffffffffffffffffff1681526020018373ffffffffffffffffffffffffffffffffffffffff1673ffffffffffffffffffffffffffffffffffffffff1681526020018281526020019350505050602060405180830381600087803b151561140257600080fd5b6102c65a03f1151561141357600080fd5b50505060405180519050151561142857600080fd5b600b60008464ffffffffff1664ffffffffff16815260200190815260200160002090508181600401600060011515151581526020019081526020016000206000828254019250508190555043816000018190555060018160030160016101000a81548160ff0219169083600281111561149d57fe5b021790555080600b60008564ffffffffff1664ffffffffff1681526020019081526020016000206000820154816000015560018201548160010155600282015481600201556003820160009054906101000a900460ff168160030160006101000a81548160ff0219169083151502179055506003820160019054906101000a900460ff168160030160016101000a81548160ff0219169083600281111561154057fe5b02179055506003820160029054906101000a900460ff168160030160026101000a81548160ff021916908315150217905550905050505050565b60075481565b60035481565b60065481565b600080600b60008464ffffffffff1664ffffffffff1681526020019081526020016000209050600160028111156115bf57fe5b8160030160019054906101000a900460ff1660028111156115dc57fe5b14156115f3576115eb8361100c565b159150611638565b6002808111156115ff57fe5b8160030160019054906101000a900460ff16600281111561161c57fe5b14156116335761162b8361070d565b159150611638565b600091505b50919050565b60045481565b600160009054906101000a900473ffffffffffffffffffffffffffffffffffffffff1681565b806060015115816060019015159081151581525050606481604001516004540281151561169357fe5b0481604001818152505050565b6002816080019060028111156116b257fe5b908160028111156116bf57fe5b81525050505600a165627a7a7230582042de946a1fbba9686650e7dcc4d6f254b2b348212cabeeb63c7a14f0b78e347b0029",
  "source": "pragma solidity ^0.4.19;\n\nimport \"./Interfaces.sol\";\n\ncontract ContentDAO {\n\n    enum Stage                                       { NONE, ACTIVE, ADJUDICATION }\n\n    struct Post {\n      uint                                           startedAt;\n      uint                                           lastSigStakeAt;\n      uint                                           toFlip;\n      bool                                           liked;\n      Stage                                          stage;\n      bool                                           feePaid;\n      mapping(bool => uint)                          totals;\n      mapping(bool => mapping(address => uint))      stakes;\n      mapping(bool => uint)                          voteTotals;\n      mapping(address => bool)                       voted;\n    }\n\n    IRegistry                       public registry;\n    IToken                          public token;\n    uint                            public subunits;\n    uint                            public MEMBER_MIN_KARMA = 500;\n    uint                            public FLIP_PERCENT = 200;\n    uint                            public ADJUDICATION_THRESHOLD = 2100;       // if start stake is 50 then at 2100, both sides = contribution\n    uint                            public SIG_STAKE = 50;                      // also serve as min stake? - yes\n    uint                            public SIG_STAKE_DELAY = 43;                // delays end of staking for 10min if sig stake occurs\n    uint                            public STAKE_DURATION = 6000;               // ~24 hrs\n    uint                            public VOTE_DURATION = 6000;                // ~24 hrs\n    uint                            public ADJUDICATION_FEE_PERCENT = 10;\n\n    mapping(uint40 => Post)         public posts;\n\n    function ContentDAO (address _registry, address _token) {\n        registry = IRegistry(_registry);\n        token = IToken(_token);\n        subunits = 10 ** uint(token.decimals());\n    }\n\n    function stake(uint40 _id, bool _vote, uint _amount) public {\n      Post storage post = posts[_id];\n      require( isStakeable(_id) );\n      // stake needs to support side opposite to currently winning\n      require( _vote != post.liked );\n      // trim _amount\n      if(_amount > post.toFlip)\n          _amount = post.toFlip;\n\n      require( token.transferFrom(msg.sender, this, _amount) );\n\n      post.stakes[_vote][msg.sender] += _amount;\n      if(_amount == post.toFlip) flip(post);\n      if(_amount >= SIG_STAKE*subunits) post.lastSigStakeAt = block.number;\n\n      // if within final hour, trigger adjudication (250 blocks = 1 hr)\n      if(block.number >= post.startedAt + STAKE_DURATION - 250) startAdjudication(post);\n      // if total becomes over threshold, trigger adjudication\n      if(post.totals[_vote] >= ADJUDICATION_THRESHOLD) startAdjudication(post);\n    }\n\n    function flip(Post _post) internal {\n        _post.liked = !_post.liked;\n        _post.toFlip = FLIP_PERCENT * _post.toFlip / 100;\n    }\n\n    function startAdjudication(Post _post) internal {\n        _post.stage = Stage.ADJUDICATION;\n        // inAdjudication array?\n    }\n\n    function open(uint40 _id, uint _amount) public {\n      // not already existing\n      require( posts[_id].stage == Stage.NONE );\n      // over min stake\n      require( _amount >= SIG_STAKE*subunits );\n      // can transfer tokens\n      require( token.transferFrom(msg.sender, this, _amount) );\n      Post storage post = posts[_id];\n      post.totals[true] += _amount;\n      post.startedAt = block.number;\n      post.stage = Stage.ACTIVE;\n      posts[_id] = post;\n    }\n\n    function vote(uint40 _id, bool _vote) public {\n        require( isMember(msg.sender) );\n        require( isVotable(_id) );\n        Post storage post = posts[_id];\n        // TODO require( didn't already vote );\n        require( post.stage == Stage.ADJUDICATION );\n\n        uint weight = 1;                                                        // or karma? registry.getKarma(registry.ownerToUsername(msg.sender)\n        post.voted[msg.sender] = true;\n        post.voteTotals[_vote] += weight;\n    }\n\n    function withdraw(uint40 _id) public {\n      require( isEnded(_id) );\n      // get winning side\n      Post storage post = posts[_id];\n      bool liked = post.liked;\n      if( post.stage == Stage.ADJUDICATION &&\n          ( post.voteTotals[true] > 0 || post.voteTotals[false] > 0 ) ) {       // no vote no ruling\n          liked = post.voteTotals[true] > post.voteTotals[false];\n          if ( !post.feePaid ) {\n            require( token.transferFrom(this, 0, post.totals[!liked] * ADJUDICATION_FEE_PERCENT / 100) );\n            post.feePaid = true;\n          }\n      }\n\n      uint stake = post.stakes[liked][msg.sender];\n      uint award = post.totals[!liked] * stake  / post.totals[liked];\n      // if adjudicated, get winning side\n      require( token.transferFrom(this, msg.sender, stake + award) );\n      // send and delete address=>stake mapping\n    }\n\n    function isEnded(uint40 _id) public view returns(bool) {\n        Post storage post = posts[_id];\n        if(post.stage == Stage.ACTIVE) return !isStakeable(_id);\n        else if(post.stage == Stage.ADJUDICATION) return !isVotable(_id);\n        else return false;\n    }\n\n    function isMember(address _address) public view returns(bool) {\n        bytes20 username = registry.ownerToUsername(_address);\n        if (username == 0 ) return false;\n\n        uint32 karma = registry.getKarma(username);\n        return karma >= MEMBER_MIN_KARMA;\n    }\n\n    function isStakeable(uint40 _id) public view returns (bool) {\n        Post storage post = posts[_id];\n        return post.stage == Stage.ACTIVE &&\n               ( block.number < post.startedAt + STAKE_DURATION ||\n                 block.number < post.lastSigStakeAt + SIG_STAKE_DELAY );\n    }\n\n    function isVotable(uint40 _id) public view returns (bool) {\n        Post storage post = posts[_id];\n        return post.stage == Stage.ADJUDICATION &&\n               block.number < post.startedAt + STAKE_DURATION + VOTE_DURATION;\n    }\n\n}\n",
  "sourcePath": "/home/carl/Projects/recdao/contracts/contracts/ContentDAO.sol",
  "compiler": {
    "name": "solc",
    "version": "0.4.19+commit.c4cbbb05.Emscripten.clang"
  },
  "schemaVersion": "2.0.0",
  "updatedAt": "2018-03-19T10:58:41.319Z"
}