{
  "contractName": "ContentDAO",
  "abi": [
    {
      "constant": true,
      "inputs": [],
      "name": "ADJUDICATION_THRESHOLD",
      "outputs": [
        {
          "name": "",
          "type": "uint256"
        }
      ],
      "payable": false,
      "stateMutability": "view",
      "type": "function"
    },
    {
      "constant": true,
      "inputs": [
        {
          "name": "",
          "type": "uint40"
        }
      ],
      "name": "posts",
      "outputs": [
        {
          "name": "startedAt",
          "type": "uint256"
        },
        {
          "name": "lastSigStakeAt",
          "type": "uint256"
        },
        {
          "name": "toFlip",
          "type": "uint256"
        },
        {
          "name": "liked",
          "type": "bool"
        }
      ],
      "payable": false,
      "stateMutability": "view",
      "type": "function"
    },
    {
      "constant": true,
      "inputs": [],
      "name": "STAKE_DURATION",
      "outputs": [
        {
          "name": "",
          "type": "uint256"
        }
      ],
      "payable": false,
      "stateMutability": "view",
      "type": "function"
    },
    {
      "constant": true,
      "inputs": [],
      "name": "registry",
      "outputs": [
        {
          "name": "",
          "type": "address"
        }
      ],
      "payable": false,
      "stateMutability": "view",
      "type": "function"
    },
    {
      "constant": true,
      "inputs": [],
      "name": "subunits",
      "outputs": [
        {
          "name": "",
          "type": "uint256"
        }
      ],
      "payable": false,
      "stateMutability": "view",
      "type": "function"
    },
    {
      "constant": true,
      "inputs": [],
      "name": "SIG_STAKE_DELAY",
      "outputs": [
        {
          "name": "",
          "type": "uint256"
        }
      ],
      "payable": false,
      "stateMutability": "view",
      "type": "function"
    },
    {
      "constant": true,
      "inputs": [],
      "name": "MEMBER_MIN_KARMA",
      "outputs": [
        {
          "name": "",
          "type": "uint256"
        }
      ],
      "payable": false,
      "stateMutability": "view",
      "type": "function"
    },
    {
      "constant": true,
      "inputs": [],
      "name": "SIG_STAKE",
      "outputs": [
        {
          "name": "",
          "type": "uint256"
        }
      ],
      "payable": false,
      "stateMutability": "view",
      "type": "function"
    },
    {
      "constant": true,
      "inputs": [],
      "name": "FLIP_PERCENT",
      "outputs": [
        {
          "name": "",
          "type": "uint256"
        }
      ],
      "payable": false,
      "stateMutability": "view",
      "type": "function"
    },
    {
      "constant": true,
      "inputs": [],
      "name": "token",
      "outputs": [
        {
          "name": "",
          "type": "address"
        }
      ],
      "payable": false,
      "stateMutability": "view",
      "type": "function"
    },
    {
      "inputs": [
        {
          "name": "_registry",
          "type": "address"
        },
        {
          "name": "_token",
          "type": "address"
        }
      ],
      "payable": false,
      "stateMutability": "nonpayable",
      "type": "constructor"
    },
    {
      "constant": false,
      "inputs": [
        {
          "name": "_id",
          "type": "uint40"
        },
        {
          "name": "_vote",
          "type": "bool"
        },
        {
          "name": "_amount",
          "type": "uint256"
        }
      ],
      "name": "stake",
      "outputs": [],
      "payable": false,
      "stateMutability": "nonpayable",
      "type": "function"
    },
    {
      "constant": false,
      "inputs": [
        {
          "name": "_id",
          "type": "uint40"
        },
        {
          "name": "_amount",
          "type": "uint256"
        }
      ],
      "name": "init",
      "outputs": [],
      "payable": false,
      "stateMutability": "nonpayable",
      "type": "function"
    },
    {
      "constant": false,
      "inputs": [
        {
          "name": "_id",
          "type": "uint40"
        },
        {
          "name": "_vote",
          "type": "bool"
        }
      ],
      "name": "vote",
      "outputs": [],
      "payable": false,
      "stateMutability": "nonpayable",
      "type": "function"
    },
    {
      "constant": true,
      "inputs": [
        {
          "name": "_address",
          "type": "address"
        }
      ],
      "name": "isMember",
      "outputs": [
        {
          "name": "",
          "type": "bool"
        }
      ],
      "payable": false,
      "stateMutability": "view",
      "type": "function"
    }
  ],
  "bytecode": "0x60606040526101f4600355607d600455600a60055560c8600655602b600755611770600855341561002f57600080fd5b604051604080610d4d83398101604052808051906020019091908051906020019091905050816000806101000a81548173ffffffffffffffffffffffffffffffffffffffff021916908373ffffffffffffffffffffffffffffffffffffffff16021790555080600160006101000a81548173ffffffffffffffffffffffffffffffffffffffff021916908373ffffffffffffffffffffffffffffffffffffffff160217905550600160009054906101000a900473ffffffffffffffffffffffffffffffffffffffff1673ffffffffffffffffffffffffffffffffffffffff1663313ce5676000604051602001526040518163ffffffff167c0100000000000000000000000000000000000000000000000000000000028152600401602060405180830381600087803b151561016357600080fd5b6102c65a03f1151561017457600080fd5b5050506040518051905060ff16600a0a6002819055505050610bb28061019b6000396000f3006060604052600436106100d0576000357c0100000000000000000000000000000000000000000000000000000000900463ffffffff1680630d20c824146100d55780631bea3fcd146100fe57806331bedadb1461013157806355273fc3146101665780636afb630a146101bd5780637258a776146101e65780637b1039991461022457806399f86ecb14610279578063a230c524146102a2578063c4780fae146102f3578063d4f432f91461031c578063e47892bb14610345578063f9500f641461036e578063fc0c546a14610397575b600080fd5b34156100e057600080fd5b6100e86103ec565b6040518082815260200191505060405180910390f35b341561010957600080fd5b61012f600480803564ffffffffff169060200190919080359060200190919050506103f2565b005b341561013c57600080fd5b610164600480803564ffffffffff16906020019091908035151590602001909190505061062b565b005b341561017157600080fd5b61018e600480803564ffffffffff16906020019091905050610643565b604051808581526020018481526020018381526020018215151515815260200194505050505060405180910390f35b34156101c857600080fd5b6101d0610680565b6040518082815260200191505060405180910390f35b34156101f157600080fd5b610222600480803564ffffffffff169060200190919080351515906020019091908035906020019091905050610686565b005b341561022f57600080fd5b6102376108e8565b604051808273ffffffffffffffffffffffffffffffffffffffff1673ffffffffffffffffffffffffffffffffffffffff16815260200191505060405180910390f35b341561028457600080fd5b61028c61090d565b6040518082815260200191505060405180910390f35b34156102ad57600080fd5b6102d9600480803573ffffffffffffffffffffffffffffffffffffffff16906020019091905050610913565b604051808215151515815260200191505060405180910390f35b34156102fe57600080fd5b610306610b12565b6040518082815260200191505060405180910390f35b341561032757600080fd5b61032f610b18565b6040518082815260200191505060405180910390f35b341561035057600080fd5b610358610b1e565b6040518082815260200191505060405180910390f35b341561037957600080fd5b610381610b24565b6040518082815260200191505060405180910390f35b34156103a257600080fd5b6103aa610b2a565b604051808273ffffffffffffffffffffffffffffffffffffffff1673ffffffffffffffffffffffffffffffffffffffff16815260200191505060405180910390f35b60055481565b600080600960008564ffffffffff1664ffffffffff1681526020019081526020016000206000015414151561042657600080fd5b60025460065402821015151561043b57600080fd5b600160009054906101000a900473ffffffffffffffffffffffffffffffffffffffff1673ffffffffffffffffffffffffffffffffffffffff166323b872dd3330856000604051602001526040518463ffffffff167c0100000000000000000000000000000000000000000000000000000000028152600401808473ffffffffffffffffffffffffffffffffffffffff1673ffffffffffffffffffffffffffffffffffffffff1681526020018373ffffffffffffffffffffffffffffffffffffffff1673ffffffffffffffffffffffffffffffffffffffff1681526020018281526020019350505050602060405180830381600087803b151561053c57600080fd5b6102c65a03f1151561054d57600080fd5b50505060405180519050151561056257600080fd5b600960008464ffffffffff1664ffffffffff16815260200190815260200160002090508181600401600060011515151581526020019081526020016000206000828254019250508190555043816000018190555080600960008564ffffffffff1664ffffffffff1681526020019081526020016000206000820154816000015560018201548160010155600282015481600201556003820160009054906101000a900460ff168160030160006101000a81548160ff021916908315150217905550905050505050565b61063433610913565b151561063f57600080fd5b5050565b60096020528060005260406000206000915090508060000154908060010154908060020154908060030160009054906101000a900460ff16905084565b60085481565b6000600960008564ffffffffff1664ffffffffff16815260200190815260200160002090508060030160009054906101000a900460ff161515831515141515156106cf57600080fd5b80600201548211156106e357806002015491505b600160009054906101000a900473ffffffffffffffffffffffffffffffffffffffff1673ffffffffffffffffffffffffffffffffffffffff166323b872dd3330856000604051602001526040518463ffffffff167c0100000000000000000000000000000000000000000000000000000000028152600401808473ffffffffffffffffffffffffffffffffffffffff1673ffffffffffffffffffffffffffffffffffffffff1681526020018373ffffffffffffffffffffffffffffffffffffffff1673ffffffffffffffffffffffffffffffffffffffff1681526020018281526020019350505050602060405180830381600087803b15156107e457600080fd5b6102c65a03f115156107f557600080fd5b50505060405180519050151561080a57600080fd5b818160050160008515151515815260200190815260200160002060003373ffffffffffffffffffffffffffffffffffffffff1673ffffffffffffffffffffffffffffffffffffffff1681526020019081526020016000206000828254019250508190555080600201548214156108c9576108c881608060405190810160405290816000820154815260200160018201548152602001600282015481526020016003820160009054906101000a900460ff161515151581525050610b50565b5b60025460065402821015156108e2574381600101819055505b50505050565b6000809054906101000a900473ffffffffffffffffffffffffffffffffffffffff1681565b60025481565b60008060008060009054906101000a900473ffffffffffffffffffffffffffffffffffffffff1673ffffffffffffffffffffffffffffffffffffffff1663730ecf34856000604051602001526040518263ffffffff167c0100000000000000000000000000000000000000000000000000000000028152600401808273ffffffffffffffffffffffffffffffffffffffff1673ffffffffffffffffffffffffffffffffffffffff168152602001915050602060405180830381600087803b15156109dc57600080fd5b6102c65a03f115156109ed57600080fd5b50505060405180519050915060006c0100000000000000000000000002826bffffffffffffffffffffffff19161415610a295760009250610b0b565b6000809054906101000a900473ffffffffffffffffffffffffffffffffffffffff1673ffffffffffffffffffffffffffffffffffffffff16634f80cc54836000604051602001526040518263ffffffff167c010000000000000000000000000000000000000000000000000000000002815260040180826bffffffffffffffffffffffff19166bffffffffffffffffffffffff19168152602001915050602060405180830381600087803b1515610adf57600080fd5b6102c65a03f11515610af057600080fd5b5050506040518051905090506003548163ffffffff16101592505b5050919050565b60075481565b60035481565b60065481565b60045481565b600160009054906101000a900473ffffffffffffffffffffffffffffffffffffffff1681565b8060600151158160600190151590811515815250506064816040015160045402811515610b7957fe5b04816040018181525050505600a165627a7a72305820ad910a4640acaad3371e1963b73082ac5a1094520a98a942807be2acee40ada10029",
  "source": "pragma solidity ^0.4.19;\n\nimport \"./Interfaces.sol\";\n\ncontract ContentDAO {\n\n    struct Post {\n      uint                                           startedAt;\n      uint                                           lastSigStakeAt;\n      uint                                           toFlip;\n      bool                                           liked;\n      mapping(bool => uint)                          totals;\n      mapping(bool => mapping(address => uint))      stakes;\n    }\n\n    IRegistry                       public registry;\n    IToken                          public token;\n    uint                            public subunits;\n    uint                            public MEMBER_MIN_KARMA = 500;\n    uint                            public FLIP_PERCENT = 125;\n    uint                            public ADJUDICATION_THRESHOLD = 10;\n    uint                            public SIG_STAKE = 200;                     // also serve as min stake? - yes\n    uint                            public SIG_STAKE_DELAY = 43;                // delays end of staking for 10min if sig stake occurs\n    uint                            public STAKE_DURATION = 6000;               // ~24 hrs\n\n    mapping(uint40 => Post)         public posts;\n\n    function ContentDAO (address _registry, address _token) {\n        registry = IRegistry(_registry);\n        token = IToken(_token);\n        subunits = 10 ** uint(token.decimals());\n    }\n\n    function stake(uint40 _id, bool _vote, uint _amount) public {\n      Post storage post = posts[_id];\n      // TODO require is open for staking (not finished or in adjudication)\n\n      // stake needs to support side opposite to currently winning\n      require( _vote != post.liked );\n      // trim _amount\n      if(_amount > post.toFlip)\n          _amount = post.toFlip;\n\n      require( token.transferFrom(msg.sender, this, _amount) );\n\n      post.stakes[_vote][msg.sender] += _amount;\n      if(_amount == post.toFlip) flip(post);\n      if(_amount >= SIG_STAKE*subunits) post.lastSigStakeAt = block.number;\n    }\n\n    function flip(Post _post) internal {\n        _post.liked = !_post.liked;\n        _post.toFlip = FLIP_PERCENT * _post.toFlip / 100;\n    }\n\n    function init(uint40 _id, uint _amount) public {\n      // not already existing\n      require( posts[_id].startedAt == 0 );\n      // over min stake\n      require( _amount >= SIG_STAKE*subunits );\n      // can transfer tokens\n      require( token.transferFrom(msg.sender, this, _amount) );\n      Post storage post = posts[_id];\n      post.totals[true] += _amount;\n      post.startedAt = block.number;\n      posts[_id] = post;\n    }\n\n    function vote(uint40 _id, bool _vote) public {\n        require( isMember(msg.sender) );\n        // TODO - all\n    }\n\n    function isMember(address _address) public view returns(bool) {\n        bytes20 username = registry.ownerToUsername(_address);\n        if (username == 0 ) return false;\n\n        uint32 karma = registry.getKarma(username);\n        return karma >= MEMBER_MIN_KARMA;\n    }\n\n}\n",
  "sourcePath": "/home/carl/Projects/recdao/contracts/contracts/ContentDAO.sol",
  "compiler": {
    "name": "solc",
    "version": "0.4.19+commit.c4cbbb05.Emscripten.clang"
  },
  "schemaVersion": "2.0.0",
  "updatedAt": "2018-03-16T13:38:51.845Z"
}