{
  "contractName": "ContentDAO",
  "abi": [
    {
      "constant": true,
      "inputs": [],
      "name": "ADJUDICATION_THRESHOLD",
      "outputs": [
        {
          "name": "",
          "type": "uint256"
        }
      ],
      "payable": false,
      "stateMutability": "view",
      "type": "function"
    },
    {
      "constant": true,
      "inputs": [],
      "name": "VOTE_DURATION",
      "outputs": [
        {
          "name": "",
          "type": "uint256"
        }
      ],
      "payable": false,
      "stateMutability": "view",
      "type": "function"
    },
    {
      "constant": true,
      "inputs": [
        {
          "name": "",
          "type": "uint40"
        }
      ],
      "name": "posts",
      "outputs": [
        {
          "name": "startedAt",
          "type": "uint256"
        },
        {
          "name": "track",
          "type": "uint256"
        },
        {
          "name": "liked",
          "type": "bool"
        },
        {
          "name": "stage",
          "type": "uint8"
        },
        {
          "name": "feePaid",
          "type": "bool"
        }
      ],
      "payable": false,
      "stateMutability": "view",
      "type": "function"
    },
    {
      "constant": true,
      "inputs": [],
      "name": "STAKE_DURATION",
      "outputs": [
        {
          "name": "",
          "type": "uint256"
        }
      ],
      "payable": false,
      "stateMutability": "view",
      "type": "function"
    },
    {
      "constant": true,
      "inputs": [],
      "name": "registry",
      "outputs": [
        {
          "name": "",
          "type": "address"
        }
      ],
      "payable": false,
      "stateMutability": "view",
      "type": "function"
    },
    {
      "constant": true,
      "inputs": [],
      "name": "subunits",
      "outputs": [
        {
          "name": "",
          "type": "uint256"
        }
      ],
      "payable": false,
      "stateMutability": "view",
      "type": "function"
    },
    {
      "constant": true,
      "inputs": [],
      "name": "ADJUDICATION_FEE_PERCENT",
      "outputs": [
        {
          "name": "",
          "type": "uint256"
        }
      ],
      "payable": false,
      "stateMutability": "view",
      "type": "function"
    },
    {
      "constant": true,
      "inputs": [],
      "name": "LATE_FLIP_WINDOW",
      "outputs": [
        {
          "name": "",
          "type": "uint256"
        }
      ],
      "payable": false,
      "stateMutability": "view",
      "type": "function"
    },
    {
      "constant": true,
      "inputs": [],
      "name": "SIG_STAKE_DELAY",
      "outputs": [
        {
          "name": "",
          "type": "uint256"
        }
      ],
      "payable": false,
      "stateMutability": "view",
      "type": "function"
    },
    {
      "constant": true,
      "inputs": [],
      "name": "MEMBER_MIN_KARMA",
      "outputs": [
        {
          "name": "",
          "type": "uint256"
        }
      ],
      "payable": false,
      "stateMutability": "view",
      "type": "function"
    },
    {
      "constant": true,
      "inputs": [],
      "name": "SIG_STAKE",
      "outputs": [
        {
          "name": "",
          "type": "uint256"
        }
      ],
      "payable": false,
      "stateMutability": "view",
      "type": "function"
    },
    {
      "constant": true,
      "inputs": [],
      "name": "FLIP_PERCENT",
      "outputs": [
        {
          "name": "",
          "type": "uint256"
        }
      ],
      "payable": false,
      "stateMutability": "view",
      "type": "function"
    },
    {
      "constant": true,
      "inputs": [],
      "name": "token",
      "outputs": [
        {
          "name": "",
          "type": "address"
        }
      ],
      "payable": false,
      "stateMutability": "view",
      "type": "function"
    },
    {
      "inputs": [
        {
          "name": "_registry",
          "type": "address"
        },
        {
          "name": "_token",
          "type": "address"
        },
        {
          "name": "_stakeDuration",
          "type": "uint256"
        },
        {
          "name": "_voteDuration",
          "type": "uint256"
        },
        {
          "name": "_lateFlipWindow",
          "type": "uint256"
        }
      ],
      "payable": false,
      "stateMutability": "nonpayable",
      "type": "constructor"
    },
    {
      "anonymous": false,
      "inputs": [
        {
          "indexed": false,
          "name": "id",
          "type": "uint40"
        }
      ],
      "name": "Open",
      "type": "event"
    },
    {
      "anonymous": false,
      "inputs": [
        {
          "indexed": false,
          "name": "id",
          "type": "uint40"
        }
      ],
      "name": "Flip",
      "type": "event"
    },
    {
      "anonymous": false,
      "inputs": [
        {
          "indexed": false,
          "name": "id",
          "type": "uint40"
        }
      ],
      "name": "StartAdjudication",
      "type": "event"
    },
    {
      "constant": false,
      "inputs": [
        {
          "name": "_id",
          "type": "uint40"
        },
        {
          "name": "_vote",
          "type": "bool"
        },
        {
          "name": "_amount",
          "type": "uint256"
        }
      ],
      "name": "stake",
      "outputs": [],
      "payable": false,
      "stateMutability": "nonpayable",
      "type": "function"
    },
    {
      "constant": false,
      "inputs": [
        {
          "name": "_id",
          "type": "uint40"
        },
        {
          "name": "_vote",
          "type": "bool"
        },
        {
          "name": "_amount",
          "type": "uint256"
        }
      ],
      "name": "open",
      "outputs": [],
      "payable": false,
      "stateMutability": "nonpayable",
      "type": "function"
    },
    {
      "constant": false,
      "inputs": [
        {
          "name": "_id",
          "type": "uint40"
        },
        {
          "name": "_vote",
          "type": "bool"
        }
      ],
      "name": "vote",
      "outputs": [],
      "payable": false,
      "stateMutability": "nonpayable",
      "type": "function"
    },
    {
      "constant": false,
      "inputs": [
        {
          "name": "_ids",
          "type": "uint40[]"
        }
      ],
      "name": "withdraw",
      "outputs": [],
      "payable": false,
      "stateMutability": "nonpayable",
      "type": "function"
    },
    {
      "constant": true,
      "inputs": [
        {
          "name": "_id",
          "type": "uint40"
        }
      ],
      "name": "isEnded",
      "outputs": [
        {
          "name": "",
          "type": "bool"
        }
      ],
      "payable": false,
      "stateMutability": "view",
      "type": "function"
    },
    {
      "constant": true,
      "inputs": [
        {
          "name": "_address",
          "type": "address"
        }
      ],
      "name": "isMember",
      "outputs": [
        {
          "name": "",
          "type": "bool"
        }
      ],
      "payable": false,
      "stateMutability": "view",
      "type": "function"
    },
    {
      "constant": true,
      "inputs": [
        {
          "name": "_id",
          "type": "uint40"
        }
      ],
      "name": "isStakeable",
      "outputs": [
        {
          "name": "",
          "type": "bool"
        }
      ],
      "payable": false,
      "stateMutability": "view",
      "type": "function"
    },
    {
      "constant": true,
      "inputs": [
        {
          "name": "_id",
          "type": "uint40"
        }
      ],
      "name": "isVotable",
      "outputs": [
        {
          "name": "",
          "type": "bool"
        }
      ],
      "payable": false,
      "stateMutability": "view",
      "type": "function"
    },
    {
      "constant": true,
      "inputs": [
        {
          "name": "_id",
          "type": "uint40"
        }
      ],
      "name": "getPost",
      "outputs": [
        {
          "name": "startedAt",
          "type": "uint256"
        },
        {
          "name": "track",
          "type": "uint256"
        },
        {
          "name": "liked",
          "type": "bool"
        },
        {
          "name": "stage",
          "type": "uint8"
        },
        {
          "name": "ended",
          "type": "bool"
        },
        {
          "name": "feePaid",
          "type": "bool"
        },
        {
          "name": "totalUp",
          "type": "uint256"
        },
        {
          "name": "totalDown",
          "type": "uint256"
        },
        {
          "name": "stakeUp",
          "type": "uint256"
        },
        {
          "name": "stakeDown",
          "type": "uint256"
        },
        {
          "name": "voted",
          "type": "bool"
        }
      ],
      "payable": false,
      "stateMutability": "view",
      "type": "function"
    }
  ],
  "bytecode": "0x60606040526103e860035560c8600455611400600555600a600655602b600755610bb8600855611770600955600a805560fa600b55341561003f57600080fd5b60405160a080611c9983398101604052808051906020019091908051906020019091908051906020019091908051906020019091908051906020019091905050846000806101000a81548173ffffffffffffffffffffffffffffffffffffffff021916908373ffffffffffffffffffffffffffffffffffffffff16021790555083600160006101000a81548173ffffffffffffffffffffffffffffffffffffffff021916908373ffffffffffffffffffffffffffffffffffffffff160217905550600160009054906101000a900473ffffffffffffffffffffffffffffffffffffffff1673ffffffffffffffffffffffffffffffffffffffff1663313ce5676000604051602001526040518163ffffffff167c0100000000000000000000000000000000000000000000000000000000028152600401602060405180830381600087803b151561018e57600080fd5b6102c65a03f1151561019f57600080fd5b5050506040518051905060ff16600a0a600281905550826008819055508160098190555080600b819055505050505050611abb806101de6000396000f300606060405260043610610128576000357c0100000000000000000000000000000000000000000000000000000000900463ffffffff16806301bf4d4c1461012d5780630d20c824146101cf57806331bedadb146101f85780634654ff051461022d57806355273fc31461025657806358df20b7146102c65780636afb630a146103085780637258a776146103315780637b1039991461036f5780637c798df6146103c45780639945150a1461041e57806399f86ecb14610460578063a230c52414610489578063b2023dd8146104da578063c0eb798114610503578063c4780fae1461052c578063d4f432f914610555578063dea9e50d1461057e578063e47892bb146105bc578063f82af8f8146105e5578063f9500f6414610627578063fc0c546a14610650575b600080fd5b341561013857600080fd5b610155600480803564ffffffffff169060200190919050506106a5565b604051808c81526020018b81526020018a15151515815260200189600281111561017b57fe5b60ff1681526020018815151515815260200187151515158152602001868152602001858152602001848152602001838152602001821515151581526020019b50505050505050505050505060405180910390f35b34156101da57600080fd5b6101e261087c565b6040518082815260200191505060405180910390f35b341561020357600080fd5b61022b600480803564ffffffffff169060200190919080351515906020019091905050610882565b005b341561023857600080fd5b610240610a77565b6040518082815260200191505060405180910390f35b341561026157600080fd5b61027e600480803564ffffffffff16906020019091905050610a7d565b60405180868152602001858152602001841515151581526020018360028111156102a457fe5b60ff168152602001821515151581526020019550505050505060405180910390f35b34156102d157600080fd5b6102ee600480803564ffffffffff16906020019091905050610ada565b604051808215151515815260200191505060405180910390f35b341561031357600080fd5b61031b610b45565b6040518082815260200191505060405180910390f35b341561033c57600080fd5b61036d600480803564ffffffffff169060200190919080351515906020019091908035906020019091905050610b4b565b005b341561037a57600080fd5b610382610f3d565b604051808273ffffffffffffffffffffffffffffffffffffffff1673ffffffffffffffffffffffffffffffffffffffff16815260200191505060405180910390f35b34156103cf57600080fd5b61041c600480803590602001908201803590602001908080602002602001604051908101604052809392919081815260200183836020028082843782019150505050505091905050610f62565b005b341561042957600080fd5b610446600480803564ffffffffff16906020019091905050611388565b604051808215151515815260200191505060405180910390f35b341561046b57600080fd5b610473611406565b6040518082815260200191505060405180910390f35b341561049457600080fd5b6104c0600480803573ffffffffffffffffffffffffffffffffffffffff1690602001909190505061140c565b604051808215151515815260200191505060405180910390f35b34156104e557600080fd5b6104ed61160b565b6040518082815260200191505060405180910390f35b341561050e57600080fd5b610516611611565b6040518082815260200191505060405180910390f35b341561053757600080fd5b61053f611617565b6040518082815260200191505060405180910390f35b341561056057600080fd5b61056861161d565b6040518082815260200191505060405180910390f35b341561058957600080fd5b6105ba600480803564ffffffffff169060200190919080351515906020019091908035906020019091905050611623565b005b34156105c757600080fd5b6105cf61190e565b6040518082815260200191505060405180910390f35b34156105f057600080fd5b61060d600480803564ffffffffff16906020019091905050611914565b604051808215151515815260200191505060405180910390f35b341561063257600080fd5b61063a6119c6565b6040518082815260200191505060405180910390f35b341561065b57600080fd5b6106636119cc565b604051808273ffffffffffffffffffffffffffffffffffffffff1673ffffffffffffffffffffffffffffffffffffffff16815260200191505060405180910390f35b600080600080600080600080600080600080600c60008e64ffffffffff1664ffffffffff168152602001908152602001600020905080600001549b5080600101549a508060020160009054906101000a900460ff1699508060020160019054906101000a900460ff1698506107198d611914565b97508060020160029054906101000a900460ff169650806003016000600115151515815260200190815260200160002054955080600301600080151515158152602001908152602001600020549450806004016000600115151515815260200190815260200160002060003373ffffffffffffffffffffffffffffffffffffffff1673ffffffffffffffffffffffffffffffffffffffff1681526020019081526020016000205493508060040160008015151515815260200190815260200160002060003373ffffffffffffffffffffffffffffffffffffffff1673ffffffffffffffffffffffffffffffffffffffff1681526020019081526020016000205492508060060160003373ffffffffffffffffffffffffffffffffffffffff1673ffffffffffffffffffffffffffffffffffffffff16815260200190815260200160002060009054906101000a900460ff1691505091939597999b90929496989a50565b60055481565b60008061088e3361140c565b151561089957600080fd5b6108a284610ada565b15156108ad57600080fd5b600c60008564ffffffffff1664ffffffffff16815260200190815260200160002091508160060160003373ffffffffffffffffffffffffffffffffffffffff1673ffffffffffffffffffffffffffffffffffffffff16815260200190815260200160002060009054906101000a900460ff1615151561092b57600080fd5b60028081111561093757fe5b8260020160019054906101000a900460ff16600281111561095457fe5b14151561096057600080fd5b6001905060018260060160003373ffffffffffffffffffffffffffffffffffffffff1673ffffffffffffffffffffffffffffffffffffffff16815260200190815260200160002060006101000a81548160ff0219169083151502179055508082600501600085151515158152602001908152602001600020600082825401925050819055508160050160008360020160009054906101000a900460ff16151515158152602001908152602001600020548260050160008460020160009054906101000a900460ff1615151515158152602001908152602001600020541115610a71578160020160009054906101000a900460ff16158260020160006101000a81548160ff0219169083151502179055505b50505050565b60095481565b600c6020528060005260406000206000915090508060000154908060010154908060020160009054906101000a900460ff16908060020160019054906101000a900460ff16908060020160029054906101000a900460ff16905085565b600080600c60008464ffffffffff1664ffffffffff1681526020019081526020016000209050600280811115610b0c57fe5b8160020160019054906101000a900460ff166002811115610b2957fe5b148015610b3d575060095481600101540143105b915050919050565b60085481565b600080600080600c60008864ffffffffff1664ffffffffff168152602001908152602001600020935060006002811115610b8157fe5b8460020160019054906101000a900460ff166002811115610b9e57fe5b1415610bb457610baf878787611623565b610f34565b610bbd87611388565b1515610bc857600080fd5b8360020160009054906101000a900460ff16151586151514151515610bec57600080fd5b8360030160008560020160009054906101000a900460ff16151515151581526020019081526020016000205460646004548660030160008860020160009054906101000a900460ff161515151581526020019081526020016000205402811515610c5257fe5b0403925082851115610c62578294505b8360030160008015151515815260200190815260200160002054846003016000600115151515815260200190815260200160002054016002546005540203915081851115610cae578194505b600160009054906101000a900473ffffffffffffffffffffffffffffffffffffffff1673ffffffffffffffffffffffffffffffffffffffff166323b872dd3330886000604051602001526040518463ffffffff167c0100000000000000000000000000000000000000000000000000000000028152600401808473ffffffffffffffffffffffffffffffffffffffff1673ffffffffffffffffffffffffffffffffffffffff1681526020018373ffffffffffffffffffffffffffffffffffffffff1673ffffffffffffffffffffffffffffffffffffffff1681526020018281526020019350505050602060405180830381600087803b1515610daf57600080fd5b6102c65a03f11515610dc057600080fd5b505050604051805190501515610dd557600080fd5b848460040160008815151515815260200190815260200160002060003373ffffffffffffffffffffffffffffffffffffffff1673ffffffffffffffffffffffffffffffffffffffff168152602001908152602001600020600082825401925050819055508484600301600088151515158152602001908152602001600020600082825401925050819055506000905082851415610ee4578360020160009054906101000a900460ff16158460020160006101000a81548160ff021916908315150217905550600190507f2fffcac7bb3ceb159f187168e454fcc4fa1bd99dcf641a9d236b97de88f864a287604051808264ffffffffff1664ffffffffff16815260200191505060405180910390a15b6002546006540285101515610efd574384600101819055505b81851480610f205750808015610f1f5750600b54600854856000015401034310155b5b15610f3357610f2e876119f2565b610f34565b5b50505050505050565b6000809054906101000a900473ffffffffffffffffffffffffffffffffffffffff1681565b60008060008060008060008060009750600096505b885187101561128a578887815181101515610f8e57fe5b906020019060200201519550610fa386611914565b1515610fae57600080fd5b600c60008764ffffffffff1664ffffffffff16815260200190815260200160002094508460020160009054906101000a900460ff169350600280811115610ff157fe5b8560020160019054906101000a900460ff16600281111561100e57fe5b14801561102a57508460020160029054906101000a900460ff16155b15611180576064600a548660030160008715151515158152602001908152602001600020540281151561105957fe5b04925082856003016000861515151515815260200190815260200160002060008282540392505081905550600160009054906101000a900473ffffffffffffffffffffffffffffffffffffffff1673ffffffffffffffffffffffffffffffffffffffff1663a9059cbb6002856000604051602001526040518363ffffffff167c0100000000000000000000000000000000000000000000000000000000028152600401808373ffffffffffffffffffffffffffffffffffffffff16815260200182815260200192505050602060405180830381600087803b151561113c57600080fd5b6102c65a03f1151561114d57600080fd5b50505060405180519050151561116257600080fd5b60018560020160026101000a81548160ff0219169083151502179055505b8460040160008515151515815260200190815260200160002060003373ffffffffffffffffffffffffffffffffffffffff1673ffffffffffffffffffffffffffffffffffffffff1681526020019081526020016000205491508460030160008515151515815260200190815260200160002054828660030160008715151515158152602001908152602001600020540281151561121957fe5b0490508460040160008515151515815260200190815260200160002060003373ffffffffffffffffffffffffffffffffffffffff1673ffffffffffffffffffffffffffffffffffffffff16815260200190815260200160002060009055808201880197508680600101975050610f77565b600160009054906101000a900473ffffffffffffffffffffffffffffffffffffffff1673ffffffffffffffffffffffffffffffffffffffff1663a9059cbb338a6000604051602001526040518363ffffffff167c0100000000000000000000000000000000000000000000000000000000028152600401808373ffffffffffffffffffffffffffffffffffffffff1673ffffffffffffffffffffffffffffffffffffffff16815260200182815260200192505050602060405180830381600087803b151561135757600080fd5b6102c65a03f1151561136857600080fd5b50505060405180519050151561137d57600080fd5b505050505050505050565b600080600c60008464ffffffffff1664ffffffffff1681526020019081526020016000209050600160028111156113bb57fe5b8160020160019054906101000a900460ff1660028111156113d857fe5b1480156113fe57506008548160000154014310806113fd575060075481600101540143105b5b915050919050565b60025481565b60008060008060009054906101000a900473ffffffffffffffffffffffffffffffffffffffff1673ffffffffffffffffffffffffffffffffffffffff1663730ecf34856000604051602001526040518263ffffffff167c0100000000000000000000000000000000000000000000000000000000028152600401808273ffffffffffffffffffffffffffffffffffffffff1673ffffffffffffffffffffffffffffffffffffffff168152602001915050602060405180830381600087803b15156114d557600080fd5b6102c65a03f115156114e657600080fd5b50505060405180519050915060006c0100000000000000000000000002826bffffffffffffffffffffffff191614156115225760009250611604565b6000809054906101000a900473ffffffffffffffffffffffffffffffffffffffff1673ffffffffffffffffffffffffffffffffffffffff16634f80cc54836000604051602001526040518263ffffffff167c010000000000000000000000000000000000000000000000000000000002815260040180826bffffffffffffffffffffffff19166bffffffffffffffffffffffff19168152602001915050602060405180830381600087803b15156115d857600080fd5b6102c65a03f115156115e957600080fd5b5050506040518051905090506003548163ffffffff16101592505b5050919050565b600a5481565b600b5481565b60075481565b60035481565b600080600281111561163157fe5b600c60008664ffffffffff1664ffffffffff16815260200190815260200160002060020160019054906101000a900460ff16600281111561166e57fe5b14151561167a57600080fd5b60025460065402821015151561168f57600080fd5b60025460055402821015156116a357600080fd5b600160009054906101000a900473ffffffffffffffffffffffffffffffffffffffff1673ffffffffffffffffffffffffffffffffffffffff166323b872dd3330856000604051602001526040518463ffffffff167c0100000000000000000000000000000000000000000000000000000000028152600401808473ffffffffffffffffffffffffffffffffffffffff1673ffffffffffffffffffffffffffffffffffffffff1681526020018373ffffffffffffffffffffffffffffffffffffffff1673ffffffffffffffffffffffffffffffffffffffff1681526020018281526020019350505050602060405180830381600087803b15156117a457600080fd5b6102c65a03f115156117b557600080fd5b5050506040518051905015156117ca57600080fd5b600c60008564ffffffffff1664ffffffffff1681526020019081526020016000209050438160000181905550828160020160006101000a81548160ff02191690831515021790555060018160020160016101000a81548160ff0219169083600281111561183357fe5b0217905550818160030160008515151515815260200190815260200160002060008282540192505081905550818160040160008515151515815260200190815260200160002060003373ffffffffffffffffffffffffffffffffffffffff1673ffffffffffffffffffffffffffffffffffffffff168152602001908152602001600020600082825401925050819055507fa12448c790bac4bfc513055585f9aa752e509e753b2eacc99bf77bd3fda4581684604051808264ffffffffff1664ffffffffff16815260200191505060405180910390a150505050565b60065481565b600080600c60008464ffffffffff1664ffffffffff16815260200190815260200160002090506001600281111561194757fe5b8160020160019054906101000a900460ff16600281111561196457fe5b141561197b5761197383611388565b1591506119c0565b60028081111561198757fe5b8160020160019054906101000a900460ff1660028111156119a457fe5b14156119bb576119b383610ada565b1591506119c0565b600091505b50919050565b60045481565b600160009054906101000a900473ffffffffffffffffffffffffffffffffffffffff1681565b6000600c60008364ffffffffff1664ffffffffff168152602001908152602001600020905060028160020160016101000a81548160ff02191690836002811115611a3857fe5b02179055504381600101819055507f3ad429b2cb1f6eeb653ee845f2e4e3fb059b47e177ab670f7b7019b0cd784aa482604051808264ffffffffff1664ffffffffff16815260200191505060405180910390a150505600a165627a7a7230582036a7cd171444b10ebb3d8f6eda9eba90125d20d3613c786bfe549b2b04a0a35c0029",
  "source": "pragma solidity ^0.4.19;\n\nimport \"./Interfaces.sol\";\n\ncontract ContentDAO {\n\n    enum Stage                                       { NONE, ACTIVE, ADJUDICATION }\n\n    struct Post {\n      uint                                           startedAt;\n      uint                                           track;                     // use for lastSigStakeAt as well as adjudicationStartedAt\n      bool                                           liked;\n      Stage                                          stage;\n      bool                                           feePaid;\n      mapping(bool => uint)                          totals;\n      mapping(bool => mapping(address => uint))      stakes;\n      mapping(bool => uint)                          voteTotals;\n      mapping(address => bool)                       voted;\n    }\n\n    IRegistry                       public registry;\n    IToken                          public token;\n    uint                            public subunits;\n    uint                            public MEMBER_MIN_KARMA = 1000;\n    uint                            public FLIP_PERCENT = 200;\n    uint                            public ADJUDICATION_THRESHOLD = 5120;\n    uint                            public SIG_STAKE = 10;                      // also serve as min stake? - yes\n    uint                            public SIG_STAKE_DELAY = 43;                // delays end of staking for 10min if sig stake occurs\n    // uint                            public STAKE_DURATION = 6000;               // ~24 hrs\n    uint                            public STAKE_DURATION = 3000;               // ~12 hrs\n    uint                            public VOTE_DURATION = 6000;                // ~24 hrs\n    uint                            public ADJUDICATION_FEE_PERCENT = 10;\n    uint                            public LATE_FLIP_WINDOW = 250;              // ~ 1 hr\n\n    mapping(uint40 => Post)         public posts;\n\n    event Open(uint40 id);\n    event Flip(uint40 id);\n    event StartAdjudication(uint40 id);\n\n    function ContentDAO (address _registry, address _token, uint _stakeDuration, uint _voteDuration, uint _lateFlipWindow) {\n        registry = IRegistry(_registry);\n        token = IToken(_token);\n        subunits = 10 ** uint(token.decimals());\n        STAKE_DURATION = _stakeDuration;\n        VOTE_DURATION = _voteDuration;\n        LATE_FLIP_WINDOW = _lateFlipWindow;\n    }\n\n    function stake(uint40 _id, bool _vote, uint _amount) public {\n        Post storage post = posts[_id];\n\n        if(post.stage == Stage.NONE) {\n          open(_id, _vote, _amount);\n          return;\n        }\n\n        require( isStakeable(_id) );\n        // can only stake on losing side\n        require( _vote != post.liked );\n        // trim _amount if necessary\n        uint toFlip = (post.totals[post.liked] * FLIP_PERCENT / 100) - post.totals[!post.liked];\n        if(_amount > toFlip)\n            _amount = toFlip;                                                   // trim stake if over amount needed to flip - TODO fix this so can just stake without trim or chance of revert\n\n        uint toAdjudicate = ADJUDICATION_THRESHOLD*subunits - (post.totals[true] + post.totals[false]);\n        if(_amount > toAdjudicate)\n            _amount = toAdjudicate;\n\n        require( token.transferFrom(msg.sender, this, _amount) );\n\n        post.stakes[_vote][msg.sender] += _amount;\n        post.totals[_vote] += _amount;\n\n        bool flipped = false;\n        if(_amount == toFlip) {\n            post.liked = !post.liked;\n            flipped = true;\n            Flip(_id);\n        }\n        if(_amount >= SIG_STAKE*subunits) post.track = block.number;\n\n        // if total becomes over threshold, trigger adjudication or\n        // if flipped within final hour, trigger adjudication (250 blocks = 1 hr)\n        if(\n            _amount == toAdjudicate ||\n            (flipped && block.number >= post.startedAt + STAKE_DURATION - LATE_FLIP_WINDOW)\n          ) {\n            startAdjudication(_id);\n            return;\n        }\n    }\n\n    function startAdjudication(uint40 _id) internal {\n        Post storage post = posts[_id];\n        post.stage = Stage.ADJUDICATION;\n        post.track = block.number;\n        StartAdjudication(_id);\n        // inAdjudication array?\n    }\n\n    function open(uint40 _id, bool _vote, uint _amount) public {\n        // not already existing\n        require( posts[_id].stage == Stage.NONE );\n        // over min stake\n        require( _amount >= SIG_STAKE*subunits );\n        // must not go straight to adjudication or funds could get into non-withdrawable state\n        require( _amount < ADJUDICATION_THRESHOLD*subunits );\n        // can transfer tokens\n        require( token.transferFrom(msg.sender, this, _amount) );\n        Post storage post = posts[_id];\n        post.startedAt = block.number;\n        post.liked = _vote;\n        post.stage = Stage.ACTIVE;\n        post.totals[_vote] += _amount;\n        post.stakes[_vote][msg.sender] += _amount;\n        Open(_id);\n    }\n\n    function vote(uint40 _id, bool _vote) public {\n        require( isMember(msg.sender) );\n        require( isVotable(_id) );\n        Post storage post = posts[_id];\n        require( !post.voted[msg.sender] );\n        require( post.stage == Stage.ADJUDICATION );\n\n        uint weight = 1;                                                        // or karma? registry.getKarma(registry.ownerToUsername(msg.sender)\n        post.voted[msg.sender] = true;\n        post.voteTotals[_vote] += weight;\n        if(post.voteTotals[!post.liked] > post.voteTotals[post.liked]) {        // simple majority flips result\n            post.liked = !post.liked;\n        }\n    }\n\n    /* function voted(uint40 _id, address _address) public view returns(bool) {\n        Post storage post = posts[_id];\n        return post.voted[_address];\n    } */\n\n    function withdraw(uint40[] _ids) public {\n\n        uint total = 0;\n\n        for (uint i=0; i<_ids.length; i++) {\n            uint40 id = _ids[i];\n            require( isEnded(id) );\n            // get winning side\n            Post storage post = posts[id];\n            bool liked = post.liked;\n            if( post.stage == Stage.ADJUDICATION && !post.feePaid ) {               // first withdraw burns fee\n                uint fee = post.totals[!liked] * ADJUDICATION_FEE_PERCENT / 100;\n                post.totals[!liked] -= fee;\n\n                // TODO - do proper burn here as minime doesn't allow send to 0\n                require( token.transfer(2, fee) );\n                post.feePaid = true;\n            }\n\n            uint staked = post.stakes[liked][msg.sender];\n            uint award = post.totals[!liked] * staked / post.totals[liked];\n            // send and delete address=>stake mapping\n            delete post.stakes[liked][msg.sender];\n            total += staked + award;\n        }\n\n        require( token.transfer(msg.sender, total) );\n    }\n\n    function isEnded(uint40 _id) public view returns(bool) {\n        Post storage post = posts[_id];\n        if(post.stage == Stage.ACTIVE) return !isStakeable(_id);\n        else if(post.stage == Stage.ADJUDICATION) return !isVotable(_id);\n        else return false;\n    }\n\n    function isMember(address _address) public view returns(bool) {\n        bytes20 username = registry.ownerToUsername(_address);\n        if (username == 0 ) return false;\n\n        uint32 karma = registry.getKarma(username);\n        return karma >= MEMBER_MIN_KARMA;\n    }\n\n    function isStakeable(uint40 _id) public view returns (bool) {\n        Post storage post = posts[_id];\n        return post.stage == Stage.ACTIVE &&\n               ( block.number < post.startedAt + STAKE_DURATION ||\n                 block.number < post.track + SIG_STAKE_DELAY );\n    }\n\n    function isVotable(uint40 _id) public view returns (bool) {\n        Post storage post = posts[_id];\n        return post.stage == Stage.ADJUDICATION &&\n               block.number < post.track + VOTE_DURATION;\n    }\n\n    function getPost(uint40 _id) public view returns (\n      uint    startedAt,\n      uint    track,\n      bool    liked,\n      Stage   stage,\n      bool    ended,\n      bool    feePaid,\n      uint    totalUp,\n      uint    totalDown,\n      uint    stakeUp,\n      uint    stakeDown,\n      bool    voted\n    ) {\n        Post storage post = posts[_id];\n        startedAt = post.startedAt;\n        track = post.track;\n        liked = post.liked;\n        stage = post.stage;\n        ended = isEnded(_id);\n        feePaid = post.feePaid;\n        totalUp = post.totals[true];\n        totalDown = post.totals[false];\n        stakeUp = post.stakes[true][msg.sender];\n        stakeDown = post.stakes[false][msg.sender];\n        voted = post.voted[msg.sender];\n    }\n\n}\n",
  "sourcePath": "/home/carl/Projects/recdao/contracts/contracts/ContentDAO.sol",
  "compiler": {
    "name": "solc",
    "version": "0.4.19+commit.c4cbbb05.Emscripten.clang"
  },
  "schemaVersion": "2.0.0",
  "updatedAt": "2018-04-04T13:11:17.529Z"
}