{
  "contractName": "RECDAO",
  "abi": [
    {
      "constant": true,
      "inputs": [],
      "name": "PROP_DURATION",
      "outputs": [
        {
          "name": "",
          "type": "uint256"
        }
      ],
      "payable": false,
      "stateMutability": "view",
      "type": "function"
    },
    {
      "constant": true,
      "inputs": [],
      "name": "SIG_VOTE",
      "outputs": [
        {
          "name": "",
          "type": "uint256"
        }
      ],
      "payable": false,
      "stateMutability": "view",
      "type": "function"
    },
    {
      "constant": true,
      "inputs": [],
      "name": "SIG_VOTE_DELAY",
      "outputs": [
        {
          "name": "",
          "type": "uint256"
        }
      ],
      "payable": false,
      "stateMutability": "view",
      "type": "function"
    },
    {
      "constant": true,
      "inputs": [],
      "name": "registry",
      "outputs": [
        {
          "name": "",
          "type": "address"
        }
      ],
      "payable": false,
      "stateMutability": "view",
      "type": "function"
    },
    {
      "constant": true,
      "inputs": [],
      "name": "subunits",
      "outputs": [
        {
          "name": "",
          "type": "uint256"
        }
      ],
      "payable": false,
      "stateMutability": "view",
      "type": "function"
    },
    {
      "constant": true,
      "inputs": [],
      "name": "MIN_PASS",
      "outputs": [
        {
          "name": "",
          "type": "uint256"
        }
      ],
      "payable": false,
      "stateMutability": "view",
      "type": "function"
    },
    {
      "constant": true,
      "inputs": [
        {
          "name": "",
          "type": "uint256"
        }
      ],
      "name": "roots",
      "outputs": [
        {
          "name": "",
          "type": "bytes32"
        }
      ],
      "payable": false,
      "stateMutability": "view",
      "type": "function"
    },
    {
      "constant": true,
      "inputs": [],
      "name": "PROP_STAKE",
      "outputs": [
        {
          "name": "",
          "type": "uint256"
        }
      ],
      "payable": false,
      "stateMutability": "view",
      "type": "function"
    },
    {
      "constant": true,
      "inputs": [],
      "name": "token",
      "outputs": [
        {
          "name": "",
          "type": "address"
        }
      ],
      "payable": false,
      "stateMutability": "view",
      "type": "function"
    },
    {
      "constant": true,
      "inputs": [
        {
          "name": "",
          "type": "uint256"
        }
      ],
      "name": "props",
      "outputs": [
        {
          "name": "action",
          "type": "uint8"
        },
        {
          "name": "data",
          "type": "bytes32"
        },
        {
          "name": "startedAt",
          "type": "uint256"
        },
        {
          "name": "lastSigVoteAt",
          "type": "uint256"
        },
        {
          "name": "author",
          "type": "bytes20"
        },
        {
          "name": "enacted",
          "type": "bool"
        }
      ],
      "payable": false,
      "stateMutability": "view",
      "type": "function"
    },
    {
      "inputs": [
        {
          "name": "_parent",
          "type": "address"
        },
        {
          "name": "_token",
          "type": "address"
        },
        {
          "name": "_registry",
          "type": "address"
        },
        {
          "name": "_root",
          "type": "bytes32"
        },
        {
          "name": "_propDuration",
          "type": "uint256"
        },
        {
          "name": "_sigVoteDelay",
          "type": "uint256"
        }
      ],
      "payable": false,
      "stateMutability": "nonpayable",
      "type": "constructor"
    },
    {
      "anonymous": false,
      "inputs": [
        {
          "indexed": false,
          "name": "username",
          "type": "bytes20"
        },
        {
          "indexed": false,
          "name": "propIdx",
          "type": "uint256"
        }
      ],
      "name": "Proposed",
      "type": "event"
    },
    {
      "anonymous": false,
      "inputs": [
        {
          "indexed": false,
          "name": "username",
          "type": "bytes20"
        },
        {
          "indexed": false,
          "name": "propIdx",
          "type": "uint256"
        },
        {
          "indexed": false,
          "name": "prefIdx",
          "type": "uint256"
        }
      ],
      "name": "Voted",
      "type": "event"
    },
    {
      "anonymous": false,
      "inputs": [
        {
          "indexed": false,
          "name": "propIdx",
          "type": "uint256"
        }
      ],
      "name": "Enacted",
      "type": "event"
    },
    {
      "constant": false,
      "inputs": [
        {
          "name": "_username",
          "type": "bytes20"
        },
        {
          "name": "_karma",
          "type": "uint32"
        },
        {
          "name": "_firstContent",
          "type": "uint32"
        },
        {
          "name": "_proof",
          "type": "bytes32[]"
        },
        {
          "name": "_rootIndex",
          "type": "uint16"
        }
      ],
      "name": "register",
      "outputs": [],
      "payable": false,
      "stateMutability": "nonpayable",
      "type": "function"
    },
    {
      "constant": true,
      "inputs": [
        {
          "name": "_username",
          "type": "bytes20"
        },
        {
          "name": "_karma",
          "type": "uint32"
        },
        {
          "name": "_firstContent",
          "type": "uint32"
        },
        {
          "name": "_proof",
          "type": "bytes32[]"
        },
        {
          "name": "_rootIndex",
          "type": "uint16"
        }
      ],
      "name": "validate",
      "outputs": [
        {
          "name": "",
          "type": "bool"
        }
      ],
      "payable": false,
      "stateMutability": "view",
      "type": "function"
    },
    {
      "constant": true,
      "inputs": [
        {
          "name": "_username",
          "type": "bytes20"
        },
        {
          "name": "_karma",
          "type": "uint32"
        },
        {
          "name": "_firstContent",
          "type": "uint32"
        },
        {
          "name": "_proof",
          "type": "bytes32[]"
        },
        {
          "name": "_rootIndex",
          "type": "uint16"
        }
      ],
      "name": "hash",
      "outputs": [
        {
          "name": "hash",
          "type": "bytes32"
        }
      ],
      "payable": false,
      "stateMutability": "view",
      "type": "function"
    },
    {
      "constant": false,
      "inputs": [
        {
          "name": "_action",
          "type": "uint8"
        },
        {
          "name": "_data",
          "type": "bytes32"
        }
      ],
      "name": "addProp",
      "outputs": [],
      "payable": false,
      "stateMutability": "nonpayable",
      "type": "function"
    },
    {
      "constant": false,
      "inputs": [
        {
          "name": "_propIdx",
          "type": "uint256"
        }
      ],
      "name": "enact",
      "outputs": [],
      "payable": false,
      "stateMutability": "nonpayable",
      "type": "function"
    },
    {
      "constant": true,
      "inputs": [
        {
          "name": "_propIdx",
          "type": "uint256"
        },
        {
          "name": "_prefIdx",
          "type": "uint256"
        }
      ],
      "name": "getResult",
      "outputs": [
        {
          "name": "",
          "type": "uint256"
        }
      ],
      "payable": false,
      "stateMutability": "view",
      "type": "function"
    },
    {
      "constant": true,
      "inputs": [
        {
          "name": "_propIdx",
          "type": "uint256"
        }
      ],
      "name": "getVoted",
      "outputs": [
        {
          "name": "",
          "type": "bool"
        }
      ],
      "payable": false,
      "stateMutability": "view",
      "type": "function"
    },
    {
      "constant": true,
      "inputs": [],
      "name": "getNumProps",
      "outputs": [
        {
          "name": "",
          "type": "uint256"
        }
      ],
      "payable": false,
      "stateMutability": "view",
      "type": "function"
    },
    {
      "constant": true,
      "inputs": [],
      "name": "getPropsStatic",
      "outputs": [
        {
          "name": "action",
          "type": "uint8[]"
        },
        {
          "name": "data",
          "type": "bytes32[]"
        },
        {
          "name": "startedAt",
          "type": "uint256[]"
        },
        {
          "name": "author",
          "type": "bytes20[]"
        }
      ],
      "payable": false,
      "stateMutability": "view",
      "type": "function"
    },
    {
      "constant": true,
      "inputs": [],
      "name": "getPropsDyn",
      "outputs": [
        {
          "name": "lastSigVoteAt",
          "type": "uint256[]"
        },
        {
          "name": "passing",
          "type": "bool[]"
        },
        {
          "name": "enacted",
          "type": "bool[]"
        },
        {
          "name": "voted",
          "type": "bool[]"
        }
      ],
      "payable": false,
      "stateMutability": "view",
      "type": "function"
    },
    {
      "constant": true,
      "inputs": [
        {
          "name": "_propIdx",
          "type": "uint256"
        }
      ],
      "name": "isPassing",
      "outputs": [
        {
          "name": "",
          "type": "bool"
        }
      ],
      "payable": false,
      "stateMutability": "view",
      "type": "function"
    },
    {
      "constant": true,
      "inputs": [
        {
          "name": "_propIdx",
          "type": "uint256"
        }
      ],
      "name": "isVotable",
      "outputs": [
        {
          "name": "",
          "type": "bool"
        }
      ],
      "payable": false,
      "stateMutability": "view",
      "type": "function"
    },
    {
      "constant": false,
      "inputs": [
        {
          "name": "_propIdx",
          "type": "uint256"
        },
        {
          "name": "_prefIdx",
          "type": "uint256"
        }
      ],
      "name": "vote",
      "outputs": [],
      "payable": false,
      "stateMutability": "nonpayable",
      "type": "function"
    }
  ],
  "bytecode": "0x60606040526103e860055560c8600655602b60075561a8c060085561271060095534156200002c57600080fd5b60405160c0806200303a833981016040528080519060200190919080519060200190919080519060200190919080519060200190919080519060200190919080519060200190919050506000826008819055508160078190555060008773ffffffffffffffffffffffffffffffffffffffff1614156200013c5760038054806001018281620000bc9190620002d3565b916000526020600020900160008690919091509060001916905550620000f686620001d86401000000000262002bdb176401000000009004565b846000806101000a81548173ffffffffffffffffffffffffffffffffffffffff021916908373ffffffffffffffffffffffffffffffffffffffff160217905550620001cb565b869050620001748173ffffffffffffffffffffffffffffffffffffffff16620001d86401000000000262002bdb176401000000009004565b8073ffffffffffffffffffffffffffffffffffffffff166000806101000a81548173ffffffffffffffffffffffffffffffffffffffff021916908373ffffffffffffffffffffffffffffffffffffffff1602179055505b505050505050506200032a565b80600160006101000a81548173ffffffffffffffffffffffffffffffffffffffff021916908373ffffffffffffffffffffffffffffffffffffffff160217905550600160009054906101000a900473ffffffffffffffffffffffffffffffffffffffff1673ffffffffffffffffffffffffffffffffffffffff1663313ce5676000604051602001526040518163ffffffff167c0100000000000000000000000000000000000000000000000000000000028152600401602060405180830381600087803b1515620002a857600080fd5b6102c65a03f11515620002ba57600080fd5b5050506040518051905060ff16600a0a60048190555050565b815481835581811511620002fd57818360005260206000209182019101620002fc919062000302565b5b505050565b6200032791905b808211156200032357600081600090555060010162000309565b5090565b90565b612d00806200033a6000396000f300606060405260043610610133576000357c0100000000000000000000000000000000000000000000000000000000900463ffffffff168063188535011461013857806324e9e6801461017357806324ef38d8146101a6578063299ba15f146101cf5780632dd00b3e1461020a5780634f24c26e146102335780635e9cc2a91461025c5780637141856d1461027f5780637a69b90b146102a85780637b1039991461035d57806390ed3894146103b2578063949f80c5146104f457806399f86ecb14610534578063aa33ab1b1461055d578063ae5279e514610598578063b384abef146106da578063bb4e105114610706578063c2b40ae41461072f578063cae0a0cd1461076e578063d1e3baba14610827578063f4be295f14610850578063fc0c546a146108ed578063fda54c1614610942575b600080fd5b341561014357600080fd5b61015960048080359060200190919050506109d4565b604051808215151515815260200191505060405180910390f35b341561017e57600080fd5b6101a4600480803560ff1690602001909190803560001916906020019091905050610a5b565b005b34156101b157600080fd5b6101b9610e35565b6040518082815260200191505060405180910390f35b34156101da57600080fd5b6101f06004808035906020019091905050610e3b565b604051808215151515815260200191505060405180910390f35b341561021557600080fd5b61021d610e82565b6040518082815260200191505060405180910390f35b341561023e57600080fd5b610246610e88565b6040518082815260200191505060405180910390f35b341561026757600080fd5b61027d6004808035906020019091905050610e8e565b005b341561028a57600080fd5b61029261129b565b6040518082815260200191505060405180910390f35b34156102b357600080fd5b61034360048080356bffffffffffffffffffffffff191690602001909190803563ffffffff1690602001909190803563ffffffff169060200190919080359060200190820180359060200190808060200260200160405190810160405280939291908181526020018383602002808284378201915050505050509190803561ffff169060200190919050506112a8565b604051808215151515815260200191505060405180910390f35b341561036857600080fd5b6103706114a3565b604051808273ffffffffffffffffffffffffffffffffffffffff1673ffffffffffffffffffffffffffffffffffffffff16815260200191505060405180910390f35b34156103bd57600080fd5b6103c56114c8565b6040518080602001806020018060200180602001858103855289818151815260200191508051906020019060200280838360005b838110156104145780820151818401526020810190506103f9565b50505050905001858103845288818151815260200191508051906020019060200280838360005b8381101561045657808201518184015260208101905061043b565b50505050905001858103835287818151815260200191508051906020019060200280838360005b8381101561049857808201518184015260208101905061047d565b50505050905001858103825286818151815260200191508051906020019060200280838360005b838110156104da5780820151818401526020810190506104bf565b505050509050019850505050505050505060405180910390f35b34156104ff57600080fd5b61051e60048080359060200190919080359060200190919050506116ba565b6040518082815260200191505060405180910390f35b341561053f57600080fd5b6105476116fb565b6040518082815260200191505060405180910390f35b341561056857600080fd5b61057e6004808035906020019091905050611701565b604051808215151515815260200191505060405180910390f35b34156105a357600080fd5b6105ab61177a565b6040518080602001806020018060200180602001858103855289818151815260200191508051906020019060200280838360005b838110156105fa5780820151818401526020810190506105df565b50505050905001858103845288818151815260200191508051906020019060200280838360005b8381101561063c578082015181840152602081019050610621565b50505050905001858103835287818151815260200191508051906020019060200280838360005b8381101561067e578082015181840152602081019050610663565b50505050905001858103825286818151815260200191508051906020019060200280838360005b838110156106c05780820151818401526020810190506106a5565b505050509050019850505050505050505060405180910390f35b34156106e557600080fd5b6107046004808035906020019091908035906020019091905050611967565b005b341561071157600080fd5b610719611ea3565b6040518082815260200191505060405180910390f35b341561073a57600080fd5b6107506004808035906020019091905050611ea9565b60405180826000191660001916815260200191505060405180910390f35b341561077957600080fd5b61080960048080356bffffffffffffffffffffffff191690602001909190803563ffffffff1690602001909190803563ffffffff169060200190919080359060200190820180359060200190808060200260200160405190810160405280939291908181526020018383602002808284378201915050505050509190803561ffff16906020019091905050611ecd565b60405180826000191660001916815260200191505060405180910390f35b341561083257600080fd5b61083a611fb7565b6040518082815260200191505060405180910390f35b341561085b57600080fd5b6108eb60048080356bffffffffffffffffffffffff191690602001909190803563ffffffff1690602001909190803563ffffffff169060200190919080359060200190820180359060200190808060200260200160405190810160405280939291908181526020018383602002808284378201915050505050509190803561ffff16906020019091905050611fbd565b005b34156108f857600080fd5b6109006127d2565b604051808273ffffffffffffffffffffffffffffffffffffffff1673ffffffffffffffffffffffffffffffffffffffff16815260200191505060405180910390f35b341561094d57600080fd5b61096360048080359060200190919050506127f8565b6040518087600181111561097357fe5b60ff1681526020018660001916600019168152602001858152602001848152602001836bffffffffffffffffffffffff19166bffffffffffffffffffffffff1916815260200182151515158152602001965050505050505060405180910390f35b6000806002838154811015156109e657fe5b906000526020600020906007020190506009548160050160006001815260200190815260200160002054118015610a5357508060050160008081526020019081526020016000205460028260050160006001815260200190815260200160002054811515610a5057fe5b04115b915050919050565b6000610a65612a18565b6000809054906101000a900473ffffffffffffffffffffffffffffffffffffffff1673ffffffffffffffffffffffffffffffffffffffff1663730ecf34336000604051602001526040518263ffffffff167c0100000000000000000000000000000000000000000000000000000000028152600401808273ffffffffffffffffffffffffffffffffffffffff1673ffffffffffffffffffffffffffffffffffffffff168152602001915050602060405180830381600087803b1515610b2957600080fd5b6102c65a03f11515610b3a57600080fd5b50505060405180519050915060006c0100000000000000000000000002826bffffffffffffffffffffffff191614151515610b7457600080fd5b600160009054906101000a900473ffffffffffffffffffffffffffffffffffffffff1673ffffffffffffffffffffffffffffffffffffffff166323b872dd336001600454600554026000604051602001526040518463ffffffff167c0100000000000000000000000000000000000000000000000000000000028152600401808473ffffffffffffffffffffffffffffffffffffffff1673ffffffffffffffffffffffffffffffffffffffff1681526020018373ffffffffffffffffffffffffffffffffffffffff1681526020018281526020019350505050602060405180830381600087803b1515610c6657600080fd5b6102c65a03f11515610c7757600080fd5b505050604051805190501515610c8c57600080fd5b8381600001906001811115610c9d57fe5b90816001811115610caa57fe5b815250508281602001906000191690816000191681525050438160400181815250508181608001906bffffffffffffffffffffffff191690816bffffffffffffffffffffffff1916815250507f2ad37ebe842f2667c5b100d0bf5c88021923992673ad0e83fe19704bdd4ca1b282600160028054806001018281610d2e9190612a6e565b9160005260206000209060070201600086909190915060008201518160000160006101000a81548160ff02191690836001811115610d6857fe5b021790555060208201518160010190600019169055604082015181600201556060820151816003015560808201518160040160006101000a81548173ffffffffffffffffffffffffffffffffffffffff02191690836c010000000000000000000000009004021790555060a08201518160040160146101000a81548160ff02191690831515021790555050500360405180836bffffffffffffffffffffffff19166bffffffffffffffffffffffff191681526020018281526020019250505060405180910390a150505050565b60085481565b600080600283815481101515610e4d57fe5b90600052602060002090600702019050600854816002015401431080610e7a575060075481600301540143105b915050919050565b60065481565b60075481565b6000600282815481101515610e9f57fe5b90600052602060002090600702019050600015158160040160149054906101000a900460ff161515148015610eda5750610ed882610e3b565b155b8015610eeb5750610eea826109d4565b5b80156110ed5750600160009054906101000a900473ffffffffffffffffffffffffffffffffffffffff1673ffffffffffffffffffffffffffffffffffffffff166323b872dd60016000809054906101000a900473ffffffffffffffffffffffffffffffffffffffff1673ffffffffffffffffffffffffffffffffffffffff1663e487eb588560040160009054906101000a90046c01000000000000000000000000026000604051602001526040518263ffffffff167c010000000000000000000000000000000000000000000000000000000002815260040180826bffffffffffffffffffffffff19166bffffffffffffffffffffffff19168152602001915050602060405180830381600087803b151561100557600080fd5b6102c65a03f1151561101657600080fd5b50505060405180519050600454600554026000604051602001526040518463ffffffff167c0100000000000000000000000000000000000000000000000000000000028152600401808473ffffffffffffffffffffffffffffffffffffffff1681526020018373ffffffffffffffffffffffffffffffffffffffff1673ffffffffffffffffffffffffffffffffffffffff1681526020018281526020019350505050602060405180830381600087803b15156110d157600080fd5b6102c65a03f115156110e257600080fd5b505050604051805190505b15156110f857600080fd5b60018160040160146101000a81548160ff0219169083151502179055506000600181111561112257fe5b8160000160009054906101000a900460ff16600181111561113f57fe5b14156111fc576111f773__UtilityLib____________________________63a817d2de83600101546000604051602001526040518263ffffffff167c010000000000000000000000000000000000000000000000000000000002815260040180826000191660001916815260200191505060206040518083038186803b15156111c757600080fd5b6102c65a03f415156111d857600080fd5b505050604051805190506c010000000000000000000000009004612876565b611260565b60018081111561120857fe5b8160000160009054906101000a900460ff16600181111561122557fe5b141561125f576003805480600101828161123f9190612aa0565b916000526020600020900160008360010154909190915090600019169055505b5b7f440b4df27ef0cbe1e8236588eee6d56dba92201e0ce4128f872e74dc253a74ee826040518082815260200191505060405180910390a15050565b6000600280549050905090565b60008033878787604051808573ffffffffffffffffffffffffffffffffffffffff1673ffffffffffffffffffffffffffffffffffffffff166c01000000000000000000000000028152601401846bffffffffffffffffffffffff19166bffffffffffffffffffffffff191681526014018363ffffffff1663ffffffff167c01000000000000000000000000000000000000000000000000000000000281526004018263ffffffff1663ffffffff167c01000000000000000000000000000000000000000000000000000000000281526004019450505050506040518091039020905073__UtilityLib____________________________6372a528518560038661ffff168154811015156113b857fe5b906000526020600020900154846000604051602001526040518463ffffffff167c0100000000000000000000000000000000000000000000000000000000028152600401808060200184600019166000191681526020018360001916600019168152602001828103825285818151815260200191508051906020019060200280838360005b8381101561145857808201518184015260208101905061143d565b5050505090500194505050505060206040518083038186803b151561147c57600080fd5b6102c65a03f4151561148d57600080fd5b5050506040518051905091505095945050505050565b6000809054906101000a900473ffffffffffffffffffffffffffffffffffffffff1681565b6114d0612acc565b6114d8612ae0565b6114e0612ae0565b6114e8612ae0565b6000806002805490506040518059106114fe5750595b908082528060200260200182016040525095506002805490506040518059106115245750595b9080825280602002602001820160405250945060028054905060405180591061154a5750595b908082528060200260200182016040525093506002805490506040518059106115705750595b90808252806020026020018201604052509250600091505b6002805490508210156116b2576002828154811015156115a457fe5b90600052602060002090600702019050806003015486838151811015156115c757fe5b90602001906020020181815250506115de826109d4565b85838151811015156115ec57fe5b90602001906020020190151590811515815250508060040160149054906101000a900460ff16848381518110151561162057fe5b90602001906020020190151590811515815250508060060160003373ffffffffffffffffffffffffffffffffffffffff1673ffffffffffffffffffffffffffffffffffffffff16815260200190815260200160002060009054906101000a900460ff16838381518110151561169157fe5b90602001906020020190151590811515815250508180600101925050611588565b505090919293565b6000806002848154811015156116cc57fe5b906000526020600020906007020190508060050160008481526020019081526020016000205491505092915050565b60045481565b60008060028381548110151561171357fe5b906000526020600020906007020190508060060160003373ffffffffffffffffffffffffffffffffffffffff1673ffffffffffffffffffffffffffffffffffffffff16815260200190815260200160002060009054906101000a900460ff16915050919050565b611782612af4565b61178a612b08565b611792612acc565b61179a612b1c565b6000806002805490506040518059106117b05750595b908082528060200260200182016040525095506002805490506040518059106117d65750595b908082528060200260200182016040525094506002805490506040518059106117fc5750595b908082528060200260200182016040525093506002805490506040518059106118225750595b90808252806020026020018201604052509250600091505b60028054905082101561195f5760028281548110151561185657fe5b906000526020600020906007020190508060000160009054906101000a900460ff16868381518110151561188657fe5b90602001906020020190600181111561189b57fe5b908160018111156118a857fe5b81525050806001015485838151811015156118bf57fe5b906020019060200201906000191690816000191681525050806002015484838151811015156118ea57fe5b90602001906020020181815250508060040160009054906101000a90046c0100000000000000000000000002838381518110151561192457fe5b906020019060200201906bffffffffffffffffffffffff191690816bffffffffffffffffffffffff191681525050818060010192505061183a565b505090919293565b60008060008060008060009054906101000a900473ffffffffffffffffffffffffffffffffffffffff1673ffffffffffffffffffffffffffffffffffffffff1663730ecf34336000604051602001526040518263ffffffff167c0100000000000000000000000000000000000000000000000000000000028152600401808273ffffffffffffffffffffffffffffffffffffffff1673ffffffffffffffffffffffffffffffffffffffff168152602001915050602060405180830381600087803b1515611a3357600080fd5b6102c65a03f11515611a4457600080fd5b50505060405180519050945060006c0100000000000000000000000002856bffffffffffffffffffffffff191614151515611a7e57600080fd5b6000809054906101000a900473ffffffffffffffffffffffffffffffffffffffff1673ffffffffffffffffffffffffffffffffffffffff16634f80cc54866000604051602001526040518263ffffffff167c010000000000000000000000000000000000000000000000000000000002815260040180826bffffffffffffffffffffffff19166bffffffffffffffffffffffff19168152602001915050602060405180830381600087803b1515611b3457600080fd5b6102c65a03f11515611b4557600080fd5b505050604051805190509350600287815481101515611b6057fe5b90600052602060002090600702019250600160009054906101000a900473ffffffffffffffffffffffffffffffffffffffff1673ffffffffffffffffffffffffffffffffffffffff166370a08231336000604051602001526040518263ffffffff167c0100000000000000000000000000000000000000000000000000000000028152600401808273ffffffffffffffffffffffffffffffffffffffff1673ffffffffffffffffffffffffffffffffffffffff168152602001915050602060405180830381600087803b1515611c3557600080fd5b6102c65a03f11515611c4657600080fd5b505050604051805190509150600015158360060160003373ffffffffffffffffffffffffffffffffffffffff1673ffffffffffffffffffffffffffffffffffffffff16815260200190815260200160002060009054906101000a900460ff161515148015611cb95750611cb887610e3b565b5b1515611cc457600080fd5b6000809054906101000a900473ffffffffffffffffffffffffffffffffffffffff1673ffffffffffffffffffffffffffffffffffffffff16634f80cc54866000604051602001526040518263ffffffff167c010000000000000000000000000000000000000000000000000000000002815260040180826bffffffffffffffffffffffff19166bffffffffffffffffffffffff19168152602001915050602060405180830381600087803b1515611d7a57600080fd5b6102c65a03f11515611d8b57600080fd5b5050506040518051905063ffffffff16905060065481101515611db2574383600301819055505b8363ffffffff168360050160008881526020019081526020016000206000828254019250508190555060018360060160003373ffffffffffffffffffffffffffffffffffffffff1673ffffffffffffffffffffffffffffffffffffffff16815260200190815260200160002060006101000a81548160ff0219169083151502179055507f19fe575acfb2c4439dd9e39c4a21d9e0e8ac8b1f8c9a974f3451035a685c433985888860405180846bffffffffffffffffffffffff19166bffffffffffffffffffffffff19168152602001838152602001828152602001935050505060405180910390a150505050505050565b60095481565b600381815481101515611eb857fe5b90600052602060002090016000915090505481565b600033868686604051808573ffffffffffffffffffffffffffffffffffffffff1673ffffffffffffffffffffffffffffffffffffffff166c01000000000000000000000000028152601401846bffffffffffffffffffffffff19166bffffffffffffffffffffffff191681526014018363ffffffff1663ffffffff167c01000000000000000000000000000000000000000000000000000000000281526004018263ffffffff1663ffffffff167c01000000000000000000000000000000000000000000000000000000000281526004019450505050506040518091039020905095945050505050565b60055481565b600080611fcd87878787876112a8565b1515611fd857600080fd5b6000809054906101000a900473ffffffffffffffffffffffffffffffffffffffff1673ffffffffffffffffffffffffffffffffffffffff1663730ecf34336000604051602001526040518263ffffffff167c0100000000000000000000000000000000000000000000000000000000028152600401808273ffffffffffffffffffffffffffffffffffffffff1673ffffffffffffffffffffffffffffffffffffffff168152602001915050602060405180830381600087803b151561209c57600080fd5b6102c65a03f115156120ad57600080fd5b50505060405180519050915060006c0100000000000000000000000002826bffffffffffffffffffffffff19161415156124b3576000809054906101000a900473ffffffffffffffffffffffffffffffffffffffff1673ffffffffffffffffffffffffffffffffffffffff16635cc0fe5b836000604051602001526040518263ffffffff167c010000000000000000000000000000000000000000000000000000000002815260040180826bffffffffffffffffffffffff19166bffffffffffffffffffffffff19168152602001915050602060405180830381600087803b151561219757600080fd5b6102c65a03f115156121a857600080fd5b5050506040518051905061ffff168361ffff161115156121c757600080fd5b6000809054906101000a900473ffffffffffffffffffffffffffffffffffffffff1673ffffffffffffffffffffffffffffffffffffffff16634f80cc54886000604051602001526040518263ffffffff167c010000000000000000000000000000000000000000000000000000000002815260040180826bffffffffffffffffffffffff19166bffffffffffffffffffffffff19168152602001915050602060405180830381600087803b151561227d57600080fd5b6102c65a03f1151561228e57600080fd5b5050506040518051905063ffffffff1690506000809054906101000a900473ffffffffffffffffffffffffffffffffffffffff1673ffffffffffffffffffffffffffffffffffffffff1663a1584630883389876040518563ffffffff167c010000000000000000000000000000000000000000000000000000000002815260040180856bffffffffffffffffffffffff19166bffffffffffffffffffffffff191681526020018473ffffffffffffffffffffffffffffffffffffffff1673ffffffffffffffffffffffffffffffffffffffff1681526020018363ffffffff1663ffffffff1681526020018261ffff1661ffff168152602001945050505050600060405180830381600087803b15156123a557600080fd5b6102c65a03f115156123b657600080fd5b505050600160009054906101000a900473ffffffffffffffffffffffffffffffffffffffff1673ffffffffffffffffffffffffffffffffffffffff1663827f32c033600454848a63ffffffff1603026000604051602001526040518363ffffffff167c0100000000000000000000000000000000000000000000000000000000028152600401808373ffffffffffffffffffffffffffffffffffffffff1673ffffffffffffffffffffffffffffffffffffffff16815260200182815260200192505050602060405180830381600087803b151561249257600080fd5b6102c65a03f115156124a357600080fd5b50505060405180519050506127c9565b60008060009054906101000a900473ffffffffffffffffffffffffffffffffffffffff1673ffffffffffffffffffffffffffffffffffffffff1663e487eb58896000604051602001526040518263ffffffff167c010000000000000000000000000000000000000000000000000000000002815260040180826bffffffffffffffffffffffff19166bffffffffffffffffffffffff19168152602001915050602060405180830381600087803b151561256b57600080fd5b6102c65a03f1151561257c57600080fd5b5050506040518051905073ffffffffffffffffffffffffffffffffffffffff161415156125a857600080fd5b6000809054906101000a900473ffffffffffffffffffffffffffffffffffffffff1673ffffffffffffffffffffffffffffffffffffffff1663eaa3cd7e88338989886040518663ffffffff167c010000000000000000000000000000000000000000000000000000000002815260040180866bffffffffffffffffffffffff19166bffffffffffffffffffffffff191681526020018573ffffffffffffffffffffffffffffffffffffffff1673ffffffffffffffffffffffffffffffffffffffff1681526020018463ffffffff1663ffffffff1681526020018363ffffffff1663ffffffff1681526020018261ffff1661ffff16815260200195505050505050600060405180830381600087803b15156126c157600080fd5b6102c65a03f115156126d257600080fd5b505050600160009054906101000a900473ffffffffffffffffffffffffffffffffffffffff1673ffffffffffffffffffffffffffffffffffffffff1663827f32c0336004548963ffffffff16026000604051602001526040518363ffffffff167c0100000000000000000000000000000000000000000000000000000000028152600401808373ffffffffffffffffffffffffffffffffffffffff1673ffffffffffffffffffffffffffffffffffffffff16815260200182815260200192505050602060405180830381600087803b15156127ac57600080fd5b6102c65a03f115156127bd57600080fd5b50505060405180519050505b50505050505050565b600160009054906101000a900473ffffffffffffffffffffffffffffffffffffffff1681565b60028181548110151561280757fe5b90600052602060002090600702016000915090508060000160009054906101000a900460ff16908060010154908060020154908060030154908060040160009054906101000a90046c0100000000000000000000000002908060040160149054906101000a900460ff16905086565b6000809054906101000a900473ffffffffffffffffffffffffffffffffffffffff1673ffffffffffffffffffffffffffffffffffffffff16633cebb823826040518263ffffffff167c0100000000000000000000000000000000000000000000000000000000028152600401808273ffffffffffffffffffffffffffffffffffffffff1673ffffffffffffffffffffffffffffffffffffffff168152602001915050600060405180830381600087803b151561293157600080fd5b6102c65a03f1151561294257600080fd5b505050600160009054906101000a900473ffffffffffffffffffffffffffffffffffffffff1673ffffffffffffffffffffffffffffffffffffffff16633cebb823826040518263ffffffff167c0100000000000000000000000000000000000000000000000000000000028152600401808273ffffffffffffffffffffffffffffffffffffffff1673ffffffffffffffffffffffffffffffffffffffff168152602001915050600060405180830381600087803b1515612a0157600080fd5b6102c65a03f11515612a1257600080fd5b50505050565b60c06040519081016040528060006001811115612a3157fe5b815260200160008019168152602001600081526020016000815260200160006bffffffffffffffffffffffff191681526020016000151581525090565b815481835581811511612a9b57600702816007028360005260206000209182019101612a9a9190612b30565b5b505050565b815481835581811511612ac757818360005260206000209182019101612ac69190612bb6565b5b505050565b602060405190810160405280600081525090565b602060405190810160405280600081525090565b602060405190810160405280600081525090565b602060405190810160405280600081525090565b602060405190810160405280600081525090565b612bb391905b80821115612baf57600080820160006101000a81549060ff02191690556001820160009055600282016000905560038201600090556004820160006101000a81549073ffffffffffffffffffffffffffffffffffffffff02191690556004820160146101000a81549060ff021916905550600701612b36565b5090565b90565b612bd891905b80821115612bd4576000816000905550600101612bbc565b5090565b90565b80600160006101000a81548173ffffffffffffffffffffffffffffffffffffffff021916908373ffffffffffffffffffffffffffffffffffffffff160217905550600160009054906101000a900473ffffffffffffffffffffffffffffffffffffffff1673ffffffffffffffffffffffffffffffffffffffff1663313ce5676000604051602001526040518163ffffffff167c0100000000000000000000000000000000000000000000000000000000028152600401602060405180830381600087803b1515612caa57600080fd5b6102c65a03f11515612cbb57600080fd5b5050506040518051905060ff16600a0a600481905550505600a165627a7a72305820c87afd8fbbac62bd399b0ab6ef1b8c53a1d9c5a78215b6f628e59aad344a148a0029",
  "source": "pragma solidity ^0.4.19;\n\nimport \"./Interfaces.sol\";\nimport \"./UtilityLib.sol\";\n\ncontract RECDAO {\n\n    enum Actions                  { UPGRADE, ADD_ROOT }\n\n    struct Prop {\n        Actions                     action;\n        bytes32                     data;\n        uint                        startedAt;\n        uint                        lastSigVoteAt;\n        bytes20                     author;\n        bool                        enacted;\n        mapping(uint => uint)       results;\n        mapping(address => bool)    voted;\n    }\n\n    IRegistry                       public registry;\n    IToken                          public token;\n    Prop[]                          public props;\n    bytes32[]                       public roots;\n    uint                            public subunits;\n\n    uint                            public PROP_STAKE = 1000;\n    uint                            public SIG_VOTE = 200;\n    uint                            public SIG_VOTE_DELAY = 43;\n    uint                            public PROP_DURATION = 43200;\n    uint                            public MIN_PASS = 10000;\n\n    event Proposed(bytes20 username, uint propIdx);\n    event Voted(bytes20 username, uint propIdx, uint prefIdx);\n    event Enacted(uint propIdx);\n\n    function RECDAO(address _parent, address _token, address _registry, bytes32 _root, uint _propDuration, uint _sigVoteDelay){\n      PROP_DURATION = _propDuration;\n      SIG_VOTE_DELAY = _sigVoteDelay;\n      if(_parent == 0){\n          roots.push(_root);\n          setToken(_token);\n          registry = IRegistry(_registry);\n      } else {\n          RECDAO parentDAO = RECDAO(_parent);\n          setToken(address(parentDAO.token));\n          registry = IRegistry(address(parentDAO.registry));\n      }\n    }\n\n    function upgrade(address _newController) internal {\n        registry.changeController(_newController);\n        token.changeController(_newController);\n    }\n\n    function setToken(address _token) internal {\n        token = IToken(_token);\n        subunits = 10 ** uint(token.decimals());\n    }\n\n    function register(\n        bytes20 _username,\n        uint32 _karma,\n        uint32 _firstContent,\n        bytes32[] _proof,\n        uint16 _rootIndex\n    ) public {\n\n        require(validate(_username, _karma, _firstContent, _proof, _rootIndex));\n\n        bytes20 existing = registry.ownerToUsername(msg.sender);\n\n        if(existing != 0) {\n          // update\n          require(_rootIndex > registry.getLastRootIndex(existing));            // prevent double reg\n          uint currentKarma = registry.getKarma(_username);\n          registry.update(_username, msg.sender, _karma, _rootIndex);\n          token.generateTokens( msg.sender, ( _karma - currentKarma ) * subunits );\n        } else {\n          // register\n          require(registry.getOwner(_username) == 0);\n          registry.add(_username, msg.sender, _karma, _firstContent, _rootIndex);\n          token.generateTokens( msg.sender, _karma * subunits );\n        }\n    }\n\n    function validate(\n        bytes20 _username,\n        uint32 _karma,\n        uint32 _firstContent,\n        bytes32[] _proof,\n        uint16 _rootIndex\n    ) public view returns (bool) {\n        bytes32 hash = keccak256(msg.sender, _username, _karma, _firstContent);\n        return UtilityLib.checkProof(_proof, roots[_rootIndex], hash);\n    }\n\n    function hash(\n        bytes20 _username,\n        uint32 _karma,\n        uint32 _firstContent,\n        bytes32[] _proof,\n        uint16 _rootIndex\n    ) public view returns (bytes32 hash) {\n        hash = keccak256(msg.sender, _username, _karma, _firstContent);\n    }\n\n    function addProp(Actions _action, bytes32 _data) public {\n        bytes20 username = registry.ownerToUsername(msg.sender);\n        require( username != 0 );                                               // only registered users can propose\n\n        Prop memory prop;\n\n        require(\n            token.transferFrom(msg.sender, 1, PROP_STAKE * subunits )\n            );\n\n        prop.action = _action;\n        prop.data = _data;\n        prop.startedAt = block.number;\n        prop.author = username;\n\n        Proposed(username, props.push(prop)-1);\n    }\n\n    function enact(uint _propIdx) public {\n        Prop storage prop = props[_propIdx];\n\n        require(\n            prop.enacted == false &&\n            !isVotable(_propIdx) &&\n            isPassing(_propIdx) &&\n            token.transferFrom(                                                 // return staked tokens\n                1,\n                registry.getOwner(prop.author),\n                PROP_STAKE * subunits\n                )\n            );\n\n        prop.enacted = true;\n\n\n        if( prop.action == Actions.UPGRADE ) {\n            upgrade(address(UtilityLib.extract20(prop.data)));\n        } else if( prop.action == Actions.ADD_ROOT ) {\n            roots.push(prop.data);\n        }\n\n        Enacted(_propIdx);\n    }\n\n    function getResult(uint _propIdx, uint _prefIdx) public view returns (uint) {\n        Prop storage prop = props[_propIdx];\n        return prop.results[_prefIdx];\n    }\n\n    function getVoted(uint _propIdx) public view returns (bool) {\n        Prop storage prop = props[_propIdx];\n        return prop.voted[msg.sender];\n    }\n\n    function getNumProps() public view returns (uint) {\n        return props.length;\n    }\n\n    function getPropsStatic() public view returns (\n        Actions[] action,\n        bytes32[] data,\n        uint[] startedAt,\n        bytes20[] author\n    ) {\n        action = new Actions[](props.length);\n        data = new bytes32[](props.length);\n        startedAt = new uint[](props.length);\n        author = new bytes20[](props.length);\n\n        for (uint i = 0; i < props.length; i++) {\n            Prop storage prop = props[i];\n            action[i] = prop.action;\n            data[i] = prop.data;\n            startedAt[i] = prop.startedAt;\n            author[i] = prop.author;\n        }\n    }\n\n    function getPropsDyn() public view returns (\n        uint[] lastSigVoteAt,\n        bool[] passing,\n        bool[] enacted,\n        bool[] voted\n    ) {\n        lastSigVoteAt = new uint[](props.length);\n        passing = new bool[](props.length);\n        enacted = new bool[](props.length);\n        voted = new bool[](props.length);\n\n        for (uint i = 0; i < props.length; i++) {\n            Prop storage prop = props[i];\n            lastSigVoteAt[i] = prop.lastSigVoteAt;\n            passing[i] = isPassing(i);\n            enacted[i] = prop.enacted;\n            voted[i] = prop.voted[msg.sender];\n        }\n    }\n\n    function isPassing(uint _propIdx) public view returns (bool) {\n        Prop storage prop = props[_propIdx];\n        return prop.results[1] > MIN_PASS &&                                    // \"Yes\" votes are greather than minimum threshold\n               prop.results[1]/2 > prop.results[0];                             // 2/3 majority to pass\n    }\n\n    function isVotable(uint _propIdx) public view returns (bool) {\n        Prop storage prop = props[_propIdx];\n        return block.number < prop.startedAt + PROP_DURATION ||\n               block.number < prop.lastSigVoteAt + SIG_VOTE_DELAY;\n    }\n\n    function vote(uint _propIdx, uint _prefIdx) public {\n        bytes20 username = registry.ownerToUsername(msg.sender);\n        require( username != 0 );\n\n        uint32 karma = registry.getKarma(username);\n\n        Prop storage prop = props[_propIdx];\n        uint balance = token.balanceOf(msg.sender);\n\n        require(\n          prop.voted[msg.sender] == false &&                                    // didn't already vote\n          isVotable(_propIdx)                         // prop still active\n          );\n\n        uint voteWeight = registry.getKarma(username);                          // starting balance\n        if(voteWeight >= SIG_VOTE)\n            prop.lastSigVoteAt = block.number;\n        prop.results[_prefIdx] += karma;\n        prop.voted[msg.sender] = true;\n        Voted(username, _propIdx, _prefIdx);\n    }\n}\n",
  "sourcePath": "/home/carl/Projects/recdao/contracts/contracts/RECDAO.sol",
  "compiler": {
    "name": "solc",
    "version": "0.4.19+commit.c4cbbb05.Emscripten.clang"
  },
  "schemaVersion": "2.0.0",
  "updatedAt": "2018-04-04T11:29:56.244Z"
}