{
  "contractName": "Registry",
  "abi": [
    {
      "constant": false,
      "inputs": [
        {
          "name": "_newController",
          "type": "address"
        }
      ],
      "name": "changeController",
      "outputs": [],
      "payable": false,
      "stateMutability": "nonpayable",
      "type": "function"
    },
    {
      "constant": true,
      "inputs": [
        {
          "name": "",
          "type": "address"
        }
      ],
      "name": "ownerToUsername",
      "outputs": [
        {
          "name": "",
          "type": "bytes20"
        }
      ],
      "payable": false,
      "stateMutability": "view",
      "type": "function"
    },
    {
      "constant": true,
      "inputs": [
        {
          "name": "",
          "type": "bytes20"
        }
      ],
      "name": "usernameToUser",
      "outputs": [
        {
          "name": "owner",
          "type": "address"
        },
        {
          "name": "karma",
          "type": "uint32"
        },
        {
          "name": "firstContentAt",
          "type": "uint32"
        },
        {
          "name": "lastRootIndex",
          "type": "uint16"
        }
      ],
      "payable": false,
      "stateMutability": "view",
      "type": "function"
    },
    {
      "constant": true,
      "inputs": [],
      "name": "controller",
      "outputs": [
        {
          "name": "",
          "type": "address"
        }
      ],
      "payable": false,
      "stateMutability": "view",
      "type": "function"
    },
    {
      "anonymous": false,
      "inputs": [
        {
          "indexed": false,
          "name": "username",
          "type": "bytes20"
        }
      ],
      "name": "Added",
      "type": "event"
    },
    {
      "anonymous": false,
      "inputs": [
        {
          "indexed": false,
          "name": "username",
          "type": "bytes20"
        }
      ],
      "name": "Updated",
      "type": "event"
    },
    {
      "anonymous": false,
      "inputs": [
        {
          "indexed": false,
          "name": "username",
          "type": "bytes20"
        }
      ],
      "name": "Removed",
      "type": "event"
    },
    {
      "constant": false,
      "inputs": [
        {
          "name": "_username",
          "type": "bytes20"
        },
        {
          "name": "_owner",
          "type": "address"
        },
        {
          "name": "_karma",
          "type": "uint32"
        },
        {
          "name": "_firstContentAt",
          "type": "uint32"
        },
        {
          "name": "_rootIndex",
          "type": "uint16"
        }
      ],
      "name": "add",
      "outputs": [],
      "payable": false,
      "stateMutability": "nonpayable",
      "type": "function"
    },
    {
      "constant": false,
      "inputs": [
        {
          "name": "_username",
          "type": "bytes20"
        },
        {
          "name": "_owner",
          "type": "address"
        },
        {
          "name": "_karma",
          "type": "uint32"
        },
        {
          "name": "_rootIndex",
          "type": "uint16"
        }
      ],
      "name": "update",
      "outputs": [],
      "payable": false,
      "stateMutability": "nonpayable",
      "type": "function"
    },
    {
      "constant": false,
      "inputs": [
        {
          "name": "_username",
          "type": "bytes20"
        }
      ],
      "name": "remove",
      "outputs": [],
      "payable": false,
      "stateMutability": "nonpayable",
      "type": "function"
    },
    {
      "constant": true,
      "inputs": [
        {
          "name": "_username",
          "type": "bytes20"
        }
      ],
      "name": "getOwner",
      "outputs": [
        {
          "name": "owner",
          "type": "address"
        }
      ],
      "payable": false,
      "stateMutability": "view",
      "type": "function"
    },
    {
      "constant": true,
      "inputs": [
        {
          "name": "_username",
          "type": "bytes20"
        }
      ],
      "name": "getKarma",
      "outputs": [
        {
          "name": "karma",
          "type": "uint32"
        }
      ],
      "payable": false,
      "stateMutability": "view",
      "type": "function"
    },
    {
      "constant": true,
      "inputs": [
        {
          "name": "_username",
          "type": "bytes20"
        }
      ],
      "name": "getFirstContentAt",
      "outputs": [
        {
          "name": "firstContentAt",
          "type": "uint32"
        }
      ],
      "payable": false,
      "stateMutability": "view",
      "type": "function"
    },
    {
      "constant": true,
      "inputs": [
        {
          "name": "_username",
          "type": "bytes20"
        }
      ],
      "name": "getLastRootIndex",
      "outputs": [
        {
          "name": "rootIndex",
          "type": "uint16"
        }
      ],
      "payable": false,
      "stateMutability": "view",
      "type": "function"
    }
  ],
  "bytecode": "0x6060604052336000806101000a81548173ffffffffffffffffffffffffffffffffffffffff021916908373ffffffffffffffffffffffffffffffffffffffff160217905550610f4b806100536000396000f3006060604052600436106100af576000357c0100000000000000000000000000000000000000000000000000000000900463ffffffff16806326e9fd9e146100b45780633cebb823146100e65780634f80cc541461011f57806354e11522146101715780635cc0fe5b146101c3578063730ecf3414610211578063a15846301461027c578063a170c7f4146102e9578063e487eb5814610390578063eaa3cd7e14610402578063f77c47911461047e575b600080fd5b34156100bf57600080fd5b6100e460048080356bffffffffffffffffffffffff19169060200190919050506104d3565b005b34156100f157600080fd5b61011d600480803573ffffffffffffffffffffffffffffffffffffffff169060200190919050506106da565b005b341561012a57600080fd5b61014f60048080356bffffffffffffffffffffffff1916906020019091905050610778565b604051808263ffffffff1663ffffffff16815260200191505060405180910390f35b341561017c57600080fd5b6101a160048080356bffffffffffffffffffffffff19169060200190919050506107c6565b604051808263ffffffff1663ffffffff16815260200191505060405180910390f35b34156101ce57600080fd5b6101f360048080356bffffffffffffffffffffffff1916906020019091905050610814565b604051808261ffff1661ffff16815260200191505060405180910390f35b341561021c57600080fd5b610248600480803573ffffffffffffffffffffffffffffffffffffffff16906020019091905050610860565b60405180826bffffffffffffffffffffffff19166bffffffffffffffffffffffff1916815260200191505060405180910390f35b341561028757600080fd5b6102e760048080356bffffffffffffffffffffffff191690602001909190803573ffffffffffffffffffffffffffffffffffffffff1690602001909190803563ffffffff1690602001909190803561ffff1690602001909190505061088c565b005b34156102f457600080fd5b61031960048080356bffffffffffffffffffffffff1916906020019091905050610bbb565b604051808573ffffffffffffffffffffffffffffffffffffffff1673ffffffffffffffffffffffffffffffffffffffff1681526020018463ffffffff1663ffffffff1681526020018363ffffffff1663ffffffff1681526020018261ffff1661ffff16815260200194505050505060405180910390f35b341561039b57600080fd5b6103c060048080356bffffffffffffffffffffffff1916906020019091905050610c39565b604051808273ffffffffffffffffffffffffffffffffffffffff1673ffffffffffffffffffffffffffffffffffffffff16815260200191505060405180910390f35b341561040d57600080fd5b61047c60048080356bffffffffffffffffffffffff191690602001909190803573ffffffffffffffffffffffffffffffffffffffff1690602001909190803563ffffffff1690602001909190803563ffffffff1690602001909190803561ffff16906020019091905050610c97565b005b341561048957600080fd5b610491610efa565b604051808273ffffffffffffffffffffffffffffffffffffffff1673ffffffffffffffffffffffffffffffffffffffff16815260200191505060405180910390f35b6000809054906101000a900473ffffffffffffffffffffffffffffffffffffffff1673ffffffffffffffffffffffffffffffffffffffff163373ffffffffffffffffffffffffffffffffffffffff1614151561052e57600080fd5b6002600060016000846bffffffffffffffffffffffff19166bffffffffffffffffffffffff1916815260200190815260200160002060000160009054906101000a900473ffffffffffffffffffffffffffffffffffffffff1673ffffffffffffffffffffffffffffffffffffffff1673ffffffffffffffffffffffffffffffffffffffff16815260200190815260200160002060006101000a81549073ffffffffffffffffffffffffffffffffffffffff021916905560016000826bffffffffffffffffffffffff19166bffffffffffffffffffffffff19168152602001908152602001600020600080820160006101000a81549073ffffffffffffffffffffffffffffffffffffffff02191690556000820160146101000a81549063ffffffff02191690556000820160186101000a81549063ffffffff021916905560008201601c6101000a81549061ffff021916905550507f5165dcfa3c0d9ebc06abb7dcdfcf48f4b03cd46e12cef46b112fde0cde90c9118160405180826bffffffffffffffffffffffff19166bffffffffffffffffffffffff1916815260200191505060405180910390a150565b6000809054906101000a900473ffffffffffffffffffffffffffffffffffffffff1673ffffffffffffffffffffffffffffffffffffffff163373ffffffffffffffffffffffffffffffffffffffff1614151561073557600080fd5b806000806101000a81548173ffffffffffffffffffffffffffffffffffffffff021916908373ffffffffffffffffffffffffffffffffffffffff16021790555050565b600060016000836bffffffffffffffffffffffff19166bffffffffffffffffffffffff1916815260200190815260200160002060000160149054906101000a900463ffffffff169050919050565b600060016000836bffffffffffffffffffffffff19166bffffffffffffffffffffffff1916815260200190815260200160002060000160189054906101000a900463ffffffff169050919050565b600060016000836bffffffffffffffffffffffff19166bffffffffffffffffffffffff19168152602001908152602001600020600001601c9054906101000a900461ffff169050919050565b60026020528060005260406000206000915054906101000a90046c010000000000000000000000000281565b6000809054906101000a900473ffffffffffffffffffffffffffffffffffffffff1673ffffffffffffffffffffffffffffffffffffffff163373ffffffffffffffffffffffffffffffffffffffff161415156108e757600080fd5b8160016000866bffffffffffffffffffffffff19166bffffffffffffffffffffffff1916815260200190815260200160002060000160146101000a81548163ffffffff021916908363ffffffff1602179055508060016000866bffffffffffffffffffffffff19166bffffffffffffffffffffffff19168152602001908152602001600020600001601c6101000a81548161ffff021916908361ffff16021790555060016000856bffffffffffffffffffffffff19166bffffffffffffffffffffffff1916815260200190815260200160002060000160009054906101000a900473ffffffffffffffffffffffffffffffffffffffff1673ffffffffffffffffffffffffffffffffffffffff168373ffffffffffffffffffffffffffffffffffffffff16141515610b6057600260008473ffffffffffffffffffffffffffffffffffffffff1673ffffffffffffffffffffffffffffffffffffffff16815260200190815260200160002060006101000a81549073ffffffffffffffffffffffffffffffffffffffff021916905583600260008573ffffffffffffffffffffffffffffffffffffffff1673ffffffffffffffffffffffffffffffffffffffff16815260200190815260200160002060006101000a81548173ffffffffffffffffffffffffffffffffffffffff02191690836c01000000000000000000000000900402179055508260016000866bffffffffffffffffffffffff19166bffffffffffffffffffffffff1916815260200190815260200160002060000160006101000a81548173ffffffffffffffffffffffffffffffffffffffff021916908373ffffffffffffffffffffffffffffffffffffffff1602179055505b7f317f8556b7cc4212da78e555e2d8add340a78d390d66d846dd51a7127c5855738460405180826bffffffffffffffffffffffff19166bffffffffffffffffffffffff1916815260200191505060405180910390a150505050565b60016020528060005260406000206000915090508060000160009054906101000a900473ffffffffffffffffffffffffffffffffffffffff16908060000160149054906101000a900463ffffffff16908060000160189054906101000a900463ffffffff169080600001601c9054906101000a900461ffff16905084565b600060016000836bffffffffffffffffffffffff19166bffffffffffffffffffffffff1916815260200190815260200160002060000160009054906101000a900473ffffffffffffffffffffffffffffffffffffffff169050919050565b6000809054906101000a900473ffffffffffffffffffffffffffffffffffffffff1673ffffffffffffffffffffffffffffffffffffffff163373ffffffffffffffffffffffffffffffffffffffff16141515610cf257600080fd5b6080604051908101604052808573ffffffffffffffffffffffffffffffffffffffff1681526020018463ffffffff1681526020018363ffffffff1681526020018261ffff1681525060016000876bffffffffffffffffffffffff19166bffffffffffffffffffffffff1916815260200190815260200160002060008201518160000160006101000a81548173ffffffffffffffffffffffffffffffffffffffff021916908373ffffffffffffffffffffffffffffffffffffffff16021790555060208201518160000160146101000a81548163ffffffff021916908363ffffffff16021790555060408201518160000160186101000a81548163ffffffff021916908363ffffffff160217905550606082015181600001601c6101000a81548161ffff021916908361ffff16021790555090505084600260008673ffffffffffffffffffffffffffffffffffffffff1673ffffffffffffffffffffffffffffffffffffffff16815260200190815260200160002060006101000a81548173ffffffffffffffffffffffffffffffffffffffff02191690836c01000000000000000000000000900402179055507fcaededfa9707431fa24dc6540480315d555bf2fcaa7125036d222fcb70e035318560405180826bffffffffffffffffffffffff19166bffffffffffffffffffffffff1916815260200191505060405180910390a15050505050565b6000809054906101000a900473ffffffffffffffffffffffffffffffffffffffff16815600a165627a7a723058200c804e38a8f59f7a53421eec75ae1372d574246efd502b20f3935725647843800029",
  "source": "pragma solidity ^0.4.19;\n\nimport \"./Controlled.sol\";\n\ncontract Registry is Controlled {\n\n    struct User {\n        address                     owner;\n        uint32                      karma;\n        uint32                      firstContentAt;\n        uint16                      lastRootIndex;\n    }\n\n    mapping(bytes20 => User)    public usernameToUser;\n    mapping(address => bytes20) public ownerToUsername;\n\n    event Added(bytes20 username);\n    event Updated(bytes20 username);\n    event Removed(bytes20 username);\n\n    function add(bytes20 _username, address _owner, uint32 _karma, uint32 _firstContentAt, uint16 _rootIndex) public onlyController {\n        usernameToUser[_username] = User({\n          owner: _owner,\n          karma: _karma,\n          firstContentAt: _firstContentAt,\n          lastRootIndex: _rootIndex\n        });\n        ownerToUsername[_owner] = _username;\n\n        Added(_username);\n    }\n\n    function update(bytes20 _username, address _owner, uint32 _karma, uint16 _rootIndex) public onlyController {\n        // username should exist\n        // if owner is diff, then\n        usernameToUser[_username].karma = _karma;\n        usernameToUser[_username].lastRootIndex = _rootIndex;\n\n        if(_owner != usernameToUser[_username].owner) {\n            delete ownerToUsername[_owner];\n            ownerToUsername[_owner] = _username;\n            usernameToUser[_username].owner = _owner;\n        }\n\n        Updated(_username);\n    }\n\n    function remove(bytes20 _username) public onlyController {\n        delete ownerToUsername[usernameToUser[_username].owner];\n        delete usernameToUser[_username];\n        Removed(_username);\n    }\n\n    function getOwner(bytes20 _username) public view returns(address owner) {\n        owner = usernameToUser[_username].owner;\n    }\n\n    function getKarma(bytes20 _username) public view returns(uint32 karma) {\n        karma = usernameToUser[_username].karma;\n    }\n\n    function getFirstContentAt(bytes20 _username) public view returns(uint32 firstContentAt) {\n        firstContentAt = usernameToUser[_username].firstContentAt;\n    }\n\n    function getLastRootIndex(bytes20 _username) public view returns(uint16 rootIndex) {\n        rootIndex = usernameToUser[_username].lastRootIndex;\n    }\n\n}\n",
  "sourcePath": "/home/carl/Projects/recdao/contracts/contracts/Registry.sol",
  "compiler": {
    "name": "solc",
    "version": "0.4.19+commit.c4cbbb05.Emscripten.clang"
  },
  "schemaVersion": "2.0.0",
  "updatedAt": "2018-04-04T13:11:17.490Z"
}