{
  "contractName": "Tipper",
  "abi": [
    {
      "constant": true,
      "inputs": [],
      "name": "registry",
      "outputs": [
        {
          "name": "",
          "type": "address"
        }
      ],
      "payable": false,
      "stateMutability": "view",
      "type": "function"
    },
    {
      "inputs": [
        {
          "name": "_registry",
          "type": "address"
        }
      ],
      "payable": false,
      "stateMutability": "nonpayable",
      "type": "constructor"
    },
    {
      "anonymous": false,
      "inputs": [
        {
          "indexed": false,
          "name": "ctype",
          "type": "uint8"
        },
        {
          "indexed": false,
          "name": "id",
          "type": "uint40"
        },
        {
          "indexed": false,
          "name": "token",
          "type": "address"
        },
        {
          "indexed": false,
          "name": "amount",
          "type": "uint256"
        }
      ],
      "name": "Tip",
      "type": "event"
    },
    {
      "constant": false,
      "inputs": [
        {
          "name": "_ctype",
          "type": "uint8"
        },
        {
          "name": "_id",
          "type": "uint40"
        },
        {
          "name": "_author",
          "type": "bytes20"
        }
      ],
      "name": "tipEther",
      "outputs": [],
      "payable": true,
      "stateMutability": "payable",
      "type": "function"
    },
    {
      "constant": false,
      "inputs": [
        {
          "name": "_ctype",
          "type": "uint8"
        },
        {
          "name": "_id",
          "type": "uint40"
        },
        {
          "name": "_author",
          "type": "bytes20"
        },
        {
          "name": "_token",
          "type": "address"
        },
        {
          "name": "_amount",
          "type": "uint256"
        }
      ],
      "name": "tipToken",
      "outputs": [],
      "payable": false,
      "stateMutability": "nonpayable",
      "type": "function"
    }
  ],
  "bytecode": "0x6060604052341561000f57600080fd5b60405160208061069a83398101604052808051906020019091905050806000806101000a81548173ffffffffffffffffffffffffffffffffffffffff021916908373ffffffffffffffffffffffffffffffffffffffff1602179055505061061f8061007b6000396000f300606060405260043610610057576000357c0100000000000000000000000000000000000000000000000000000000900463ffffffff168063664a351a1461005c5780637b103999146100d2578063b86b8cbb14610127575b600080fd5b341561006757600080fd5b6100d0600480803560ff1690602001909190803564ffffffffff169060200190919080356bffffffffffffffffffffffff191690602001909190803573ffffffffffffffffffffffffffffffffffffffff1690602001909190803590602001909190505061016a565b005b34156100dd57600080fd5b6100e561040e565b604051808273ffffffffffffffffffffffffffffffffffffffff1673ffffffffffffffffffffffffffffffffffffffff16815260200191505060405180910390f35b610168600480803560ff1690602001909190803564ffffffffff169060200190919080356bffffffffffffffffffffffff1916906020019091905050610433565b005b6000806000809054906101000a900473ffffffffffffffffffffffffffffffffffffffff1673ffffffffffffffffffffffffffffffffffffffff1663e487eb58866000604051602001526040518263ffffffff167c010000000000000000000000000000000000000000000000000000000002815260040180826bffffffffffffffffffffffff19166bffffffffffffffffffffffff19168152602001915050602060405180830381600087803b151561022357600080fd5b6102c65a03f1151561023457600080fd5b50505060405180519050915060008273ffffffffffffffffffffffffffffffffffffffff161415151561026657600080fd5b8390508073ffffffffffffffffffffffffffffffffffffffff166323b872dd3384866000604051602001526040518463ffffffff167c0100000000000000000000000000000000000000000000000000000000028152600401808473ffffffffffffffffffffffffffffffffffffffff1673ffffffffffffffffffffffffffffffffffffffff1681526020018373ffffffffffffffffffffffffffffffffffffffff1673ffffffffffffffffffffffffffffffffffffffff1681526020018281526020019350505050602060405180830381600087803b151561034857600080fd5b6102c65a03f1151561035957600080fd5b50505060405180519050151561036e57600080fd5b7f532f3f86546ba22e49ff1fa16087db2a9bce673bfce11890bf282013c8e657b387878686604051808560018111156103a357fe5b60ff1681526020018464ffffffffff1664ffffffffff1681526020018373ffffffffffffffffffffffffffffffffffffffff1673ffffffffffffffffffffffffffffffffffffffff16815260200182815260200194505050505060405180910390a150505050505050565b6000809054906101000a900473ffffffffffffffffffffffffffffffffffffffff1681565b60008060009054906101000a900473ffffffffffffffffffffffffffffffffffffffff1673ffffffffffffffffffffffffffffffffffffffff1663e487eb58836000604051602001526040518263ffffffff167c010000000000000000000000000000000000000000000000000000000002815260040180826bffffffffffffffffffffffff19166bffffffffffffffffffffffff19168152602001915050602060405180830381600087803b15156104eb57600080fd5b6102c65a03f115156104fc57600080fd5b50505060405180519050905060008173ffffffffffffffffffffffffffffffffffffffff161415801561056057508073ffffffffffffffffffffffffffffffffffffffff166108fc349081150290604051600060405180830381858888f193505050505b151561056b57600080fd5b7f532f3f86546ba22e49ff1fa16087db2a9bce673bfce11890bf282013c8e657b38484600034604051808560018111156105a157fe5b60ff1681526020018464ffffffffff1664ffffffffff1681526020018373ffffffffffffffffffffffffffffffffffffffff16815260200182815260200194505050505060405180910390a1505050505600a165627a7a723058202b6076ce6db7d66dbc4309957f838654de12c29e4d662c1654cb9f5a0faa144d0029",
  "source": "pragma solidity ^0.4.19;\n\nimport \"./Interfaces.sol\";\n\ncontract Tipper {\n\n    enum ContentType                                       { POST, COMMENT }\n\n    /* struct Post {\n      bytes20                                        author;                    // only use if not already reg\n    }\n\n    mapping(uint40 => Post)         public posts; */\n    \n    IRegistry                       public registry;\n\n    event Tip(ContentType ctype, uint40 id, address token, uint amount);\n\n    function Tipper (address _registry) {\n        registry = IRegistry(_registry);\n    }\n\n    function tipEther(\n        ContentType _ctype, uint40 _id, bytes20 _author\n    ) public payable {\n        address recipient = registry.getOwner(_author);\n        require( recipient != 0 && recipient.send(msg.value) );\n        Tip(_ctype, _id, 0, msg.value);\n    }\n\n    function tipToken(\n        ContentType _ctype, uint40 _id, bytes20 _author, address _token, uint _amount\n    ) public {\n        address recipient = registry.getOwner(_author);\n        require( recipient != 0 );\n        IToken token = IToken(_token);\n        require( token.transferFrom(msg.sender, recipient, _amount) );\n        Tip(_ctype, _id, _token, _amount);\n    }\n\n}\n",
  "sourcePath": "/home/carl/Projects/recdao/contracts/contracts/Tipper.sol",
  "compiler": {
    "name": "solc",
    "version": "0.4.19+commit.c4cbbb05.Emscripten.clang"
  },
  "schemaVersion": "2.0.0",
  "updatedAt": "2018-03-30T08:47:32.892Z"
}