{
  "contractName": "UtilityLib",
  "abi": [
    {
      "constant": true,
      "inputs": [
        {
          "name": "proof",
          "type": "bytes32[]"
        },
        {
          "name": "root",
          "type": "bytes32"
        },
        {
          "name": "hash",
          "type": "bytes32"
        }
      ],
      "name": "checkProof",
      "outputs": [
        {
          "name": "",
          "type": "bool"
        }
      ],
      "payable": false,
      "stateMutability": "pure",
      "type": "function"
    },
    {
      "constant": true,
      "inputs": [
        {
          "name": "data",
          "type": "bytes32"
        }
      ],
      "name": "split32_20_12",
      "outputs": [
        {
          "name": "twenty",
          "type": "bytes20"
        },
        {
          "name": "twelve",
          "type": "bytes12"
        }
      ],
      "payable": false,
      "stateMutability": "pure",
      "type": "function"
    },
    {
      "constant": true,
      "inputs": [
        {
          "name": "data",
          "type": "bytes32"
        }
      ],
      "name": "extract20",
      "outputs": [
        {
          "name": "result",
          "type": "bytes20"
        }
      ],
      "payable": false,
      "stateMutability": "pure",
      "type": "function"
    },
    {
      "constant": true,
      "inputs": [
        {
          "name": "_username",
          "type": "bytes20"
        },
        {
          "name": "_endowment",
          "type": "uint24"
        },
        {
          "name": "_firstContent",
          "type": "uint32"
        }
      ],
      "name": "ethereumSHA3",
      "outputs": [
        {
          "name": "result",
          "type": "bytes32"
        }
      ],
      "payable": false,
      "stateMutability": "view",
      "type": "function"
    }
  ],
  "bytecode": "0x6060604052341561000f57600080fd5b6105a98061001e6000396000f300606060405260043610610062576000357c0100000000000000000000000000000000000000000000000000000000900463ffffffff1680633df86f79146100675780636d4be70f146100ea57806372a528511461014a578063a817d2de146101cb575b600080fd5b610081600480803560001916906020019091905050610219565b60405180836bffffffffffffffffffffffff19166bffffffffffffffffffffffff191681526020018273ffffffffffffffffffffffffffffffffffffffff191673ffffffffffffffffffffffffffffffffffffffff191681526020019250505060405180910390f35b61012c60048080356bffffffffffffffffffffffff191690602001909190803562ffffff1690602001909190803563ffffffff169060200190919050506102ea565b60405180826000191660001916815260200191505060405180910390f35b6101b160048080359060200190820180359060200190808060200260200160405190810160405280939291908181526020018383602002808284378201915050505050509190803560001916906020019091908035600019169060200190919050506103d6565b604051808215151515815260200191505060405180910390f35b6101e56004808035600019169060200190919050506104c4565b60405180826bffffffffffffffffffffffff19166bffffffffffffffffffffffff1916815260200191505060405180910390f35b6000806000610227846104c4565b9250601490505b60208110156102e45760086014820302848260208110151561024c57fe5b1a7f0100000000000000000000000000000000000000000000000000000000000000027effffffffffffffffffffffffffffffffffffffffffffffffffffffffffffff19166bff000000000000000000000074010000000000000000000000000000000000000000021673ffffffffffffffffffffffffffffffffffffffff19169060020a900482189150808060010191505061022e565b50915091565b60008033858585604051808573ffffffffffffffffffffffffffffffffffffffff1673ffffffffffffffffffffffffffffffffffffffff166c01000000000000000000000000028152601401846bffffffffffffffffffffffff19166bffffffffffffffffffffffff191681526014018362ffffff1662ffffff167d0100000000000000000000000000000000000000000000000000000000000281526003018263ffffffff1663ffffffff167c010000000000000000000000000000000000000000000000000000000002815260040194505050505060405180910390209050809150509392505050565b600080600090505b84518110156104af5784818151811015156103f557fe5b90602001906020020151600019168360001916101561045a5782858281518110151561041d57fe5b90602001906020020151604051808360001916600019168152602001826000191660001916815260200192505050604051809103902092506104a2565b848181518110151561046857fe5b9060200190602002015183604051808360001916600019168152602001826000191660001916815260200192505050604051809103902092505b80806001019150506103de565b83600019168360001916149150509392505050565b600080600090505b6014811015610577576008810283826020811015156104e757fe5b1a7f0100000000000000000000000000000000000000000000000000000000000000027effffffffffffffffffffffffffffffffffffffffffffffffffffffffffffff191673ff000000000000000000000000000000000000006c0100000000000000000000000002166bffffffffffffffffffffffff19169060020a90048218915080806001019150506104cc565b509190505600a165627a7a72305820257a7c30c1876e356ebec5ae952e6b6e3a2232051cb4218ef5b6a75dd948d08b0029",
  "source": "pragma solidity ^0.4.19;\n\nlibrary UtilityLib {\n\n    function checkProof(bytes32[] proof, bytes32 root, bytes32 hash) public pure returns (bool) {\n\n        for (uint i = 0; i < proof.length; i++) {\n            if (hash < proof[i]) {\n                hash = keccak256(hash, proof[i]);\n            } else {\n                hash = keccak256(proof[i], hash);\n            }\n        }\n\n        return hash == root;\n    }\n\n    function split32_20_12(bytes32 data) public pure returns (bytes20 twenty, bytes12 twelve) {\n        twenty=extract20(data);\n        for (uint i=20; i<32; i++)\n            twelve^=(bytes12(0xff0000000000000000000000)&data[i])>>((i-20)*8);\n    }\n\n    function extract20(bytes32 data) public pure returns (bytes20 result) {\n        for (uint i=0; i<20; i++)\n            result^=(bytes20(0xff00000000000000000000000000000000000000)&data[i])>>(i*8);\n    }\n\n    function ethereumSHA3(bytes20 _username, uint24 _endowment,  uint32 _firstContent) public view returns (bytes32 result) {\n        bytes32 hash = keccak256(msg.sender, _username, _endowment, _firstContent);\n        return hash;\n    }\n\n}\n",
  "sourcePath": "/home/carl/Projects/ethtrader/recdao/contracts/UtilityLib.sol",
  "compiler": {
    "name": "solc",
    "version": "0.4.19+commit.c4cbbb05.Emscripten.clang"
  },
  "schemaVersion": "2.0.0",
  "updatedAt": "2018-03-09T12:37:43.975Z"
}